:020000040800F2
:1000000060190020010100080D4000080F400008A1
:1000100013400008174000081B40000800000000C3
:100020000000000000000000000000001F40000869
:10003000214000080000000023400008254000087F
:100040001B0100081B0100081B0100081B01000820
:100050001B0100081B0100081B0100081B01000810
:100060001B0100081B0100081B0100081B01000800
:100070001B0100081B0100081B0100081B010008F0
:100080001B0100081B0100081B0100081B010008E0
:100090001B0100081B0100081B01000813390008A0
:1000A0001B0100081B0100081B0100081B010008C0
:1000B000352E00081B0100081B0100081B01000869
:1000C0001B0100081B0100081B0100081B010008A0
:1000D0001B010008832B00083F2D00081B010008AE
:1000E0001B0100081B0100081B010008DFF80CD0F1
:1000F00004F0A6FB00480047B93B00086019002047
:100100000648804706480047FEE7FEE7FEE7FEE7B1
:10011000FEE7FEE7FEE7FEE7FEE7FEE7731F0008E7
:10012000ED00000831490143314A1160704770B554
:10013000002100230F22C47804B32D4C246804F45A
:10014000E064C4F5E064210AC1F10403CA404478C4
:1001500004FA03F18478144021430901254C067800
:10016000A155047804F01F050124AC4005786D11F9
:10017000AD0005F1E025C5F8004109E0047804F080
:100180001F050124AC401C4D0678761145F8264029
:1001900070BD1A4A0A400243154B1B1F1A60704774
:1001A00039B1134A121D12680243114B1B1D1A600C
:1001B00006E00F4A121D126882430D4B1B1D1A6088
:1001C0007047042808D14FF0E021096941F004018B
:1001D0004FF0E022116107E04FF0E021096921F0C2
:1001E00004014FF0E0221161704700000000FA05A1
:1001F0000CED00E000E400E080E100E080FFFF1F84
:1002000001684FF6FE7211400160002101604160FB
:100210008160C1608D49884208D18C49083949689C
:1002200041F00F01894A083A51608AE08749143148
:10023000884208D185490839496841F0F001834A6C
:10024000083A51607DE081492831884208D17F49D0
:100250000839496841F470617C4A083A516070E09D
:100260007A493C31884208D178490839496841F4D3
:100270007041764A083A516063E0744950318842CF
:1002800008D172490839496841F470216F4A083A27
:10029000516056E06D496431884208D16B49083994
:1002A000496841F47001694A083A516049E0674978
:1002B0007831884208D165490839496841F0706150
:1002C000624A083A51603CE06149884206D1011F08
:1002D000096841F00F01021F116032E05C491431DE
:1002E000884208D15A49091F096841F0F001584A6B
:1002F000121F116025E056492831884208D154491F
:10030000091F096841F47061514A121F116018E019
:100310004F493C31884208D14D49091F096841F4D1
:1003200070414B4A121F11600BE04949503188421D
:1003300007D14749091F096841F47021444A121F37
:100340001160704710B50022026847F6F0739A43B7
:100350000C6A8B6823430C6923434C6923438C69E3
:100360002343CC6923434C6A23438C6A23431A43B7
:100370000260CB6843600B6883604B68C36010BD4C
:100380000021016041608160C16001614161816162
:10039000C161016241628162704721B1026842F02D
:1003A0000102026004E002684FF6FE731A40026028
:1003B00070471AB103680B43036002E003688B4384
:1003C00003607047416070470146486880B27047DB
:1003D00001460020002201F080531BB11C4B083B5A
:1003E0001A6802E0194B083B1A6802EA01030BB1D4
:1003F000012000E00020704700F0805119B114493D
:10040000091F086002E01149083948607047014639
:100410000020002201F080531BB10D4B083B1A68ED
:1004200002E00A4B083B1A6802EA01030BB1012003
:1004300000E00020704700F0805119B10449091F05
:10044000086002E00149083948607047080002402E
:1004500008040240002044490860091D0860091D85
:100460000860091D086041483F4914310860704721
:1004700000213D498279002A3AD00A461268036871
:100480009A430B461A600A1D126803689A430B1DB3
:100490001A60027911440A6803681A430A60324AF2
:1004A0000832126803689A432F4B08331A601A1DEA
:1004B000126803689A432C4B0C331A604279102A55
:1004C0000ED11A1F126803681A43274B08331A60AB
:1004D0001A1D126803681A43234B0C331A600DE08F
:1004E0002149427911440A6803681A430A6005E009
:1004F000027911440A6803689A430A607047002130
:10050000016001710C214171002181717047164910
:10051000103109680143144A1032116070470146D6
:100520000020114A143212680A400AB1012000E08A
:10053000002070470C4914310860704701460020C4
:100540000022094B1B6803EA0102074B14331B68A6
:100550000B4013B10AB1012000E0002070470249AE
:10056000143108607047000000040140FFFF0F00D5
:1005700010B50446CC48844208D10121042000F083
:100580002DFB0021042000F029FB46E0C7488442EF
:1005900008D10121082000F021FB0021082000F0F3
:1005A0001DFB3AE0C248844208D10121102000F02E
:1005B00015FB0021102000F011FB2EE0BD48844205
:1005C00008D10121202000F009FB0021202000F0AB
:1005D00005FB22E0B848844208D10121402000F008
:1005E000FDFA0021402000F0F9FA16E0B3488442F9
:1005F00008D10121802000F0F1FA0021802000F0D4
:10060000EDFA0AE0AE48844207D10121801500F0DE
:10061000E5FA0021A01500F0E1FA10BD10B50121A6
:10062000084600F0DBFA0021012000F0D7FA10BDE7
:100630002DE9F04102460025002600200023002479
:10064000002791F803C00CF00F0591F803C00CF0DF
:10065000100CBCF1000F03D091F802C04CEA050564
:1006600091F800C0BCF1000F31D0146800202BE0DD
:100670004FF0010C0CFA00F3B1F800C00CEA0306CD
:100680009E4220D183004FF00F0C0CFA03F7BC43BD
:1006900005FA03FC4CEA040491F803C0BCF1280FEE
:1006A00006D14FF0010C0CFA00FCC2F814C00AE0AD
:1006B00091F803C0BCF1480F05D14FF0010C0CFAC2
:1006C00000FCC2F810C0401C0828D1D31460B1F857
:1006D00000C0BCF1FF0F34DD546800202EE000F1B3
:1006E000080C4FF0010808FA0CF3B1F800C00CEA4E
:1006F00003069E4221D183004FF00F0C0CFA03F742
:10070000BC4305FA03FC4CEA040491F803C0BCF1B5
:10071000280F05D100F1080C08FA0CF8C2F8148073
:1007200091F803C0BCF1480F07D100F1080C4FF05D
:10073000010808FA0CF8C2F81080401C0828CED333
:100740005460BDE8F0814FF6FF7101800221817095
:100750000421C17070470246002093680B400BB122
:10076000012000E0002070470146886880B2704791
:1007700002460020D3680B400BB1012000E00020AE
:1007800070470146C86880B2704701617047416197
:1007900070470AB1016100E041617047C160704774
:1007A0004FF480320A438261816182618269826989
:1007B000704702460020434B18684FF6807318407C
:1007C00040EA021008433F4B186070473E49C86139
:1007D0007047F0B50A46002300240021002500F0F0
:1007E0000046B6F1004F02D1364EF16901E0354EB8
:1007F0007168C0F3034583B200F44016B6F5401F9C
:1008000008D121F070612F4E766826F070662D4F6A
:100810007E6012E000F48016B6F5801F06D1032634
:1008200006FA05F4A14341F0706106E0460D360179
:1008300003FA06F6B14341F0706122B1460D36016C
:1008400003FA06F6314300F00046B6F1004F02D13C
:100850001C4EF16101E01B4E7160F0BD30B500220D
:100860008B071C0F0F2303FA04F2164B08338C106E
:1008700053F824309343134C08348D1044F825303A
:1008800023468C1053F824308C07240F00FA04F40C
:1008900023430C4C08348D1044F8253030BD0A49F0
:1008A000DC3108607047000000080140000C014086
:1008B000001001400014014000180140001C0140DC
:1008C000002001400000014000002042DF48006895
:1008D00040F00100DD49086008464068DC490840F6
:1008E000DA49486008460068DA490840D749086094
:1008F0000846006820F4802008600846406820F41C
:10090000FE0048604FF41F0088607047CF490968B7
:1009100021F48031CD4A11601146096821F480210B
:100920001160B0F5803F03D0B0F5802F0ED106E006
:10093000C649096841F48031C44A116007E0C349DF
:10094000096841F4A021C14A116000E000BF00BF66
:10095000704710B501460022002300204A11012AE9
:1009600002D1BA4C236806E0022A02D1B74C236AAE
:1009700001E0B64C636A01F01F02012494401C4060
:100980000CB1012000E0002010BD38B5002000901F
:100990000024002500BF3120FFF7DBFF054600984B
:1009A000401C00900098B0F5A06F01D0002DF2D04F
:1009B0003120FFF7CEFF08B1012400E000242046DB
:1009C00038BD01460020A14A106820F0F80040EA36
:1009D000C10010607047A0490860704702460020BF
:1009E0009A4B586820F47C1042EA01031843974B55
:1009F0005860704798490866704701460020934A3E
:100A0000506820F003000843506070478F484068EA
:100A100000F00C007047014600208C4A506820F01E
:100A2000F00008435060704701460020874A506834
:100A300020F4E06008435060704701460020834A7C
:100A4000506820F4605040EAC1005060704729B1FE
:100A50007E4A527A02437D4B5A7204E07B4A527AB4
:100A600082437A4B5A7270477B49D831086070478D
:100A700001460020754A506820F440400843506009
:100A800070470021714A20321170704A82F820109C
:100A9000012802D004280AD104E001216B4A203247
:100AA000117005E00521694A2032117000E000BF95
:100AB00000BF70476949086070476449096A01438B
:100AC000624A11627047654944390860704730B521
:100AD00000210022002400235C4D6D6805F00C010C
:100AE00021B1042905D0082923D105E05C4D05601A
:100AF00022E05B4D05601FE0544D6D6805F47012F7
:100B0000524D6D6805F48034022505EB92421CB904
:100B1000544D554305600BE04C4D6D6805F40035B0
:100B20001DB1504D5543056002E04D4D55430560E4
:100B300002E04B4D056000BF00BF444D6D6805F0FD
:100B4000F0010909484D6B5C0568DD4045603F4D8B
:100B50006D6805F4E061090A434D6B5C4568DD4052
:100B600085603A4D6D6805F46051C90A3E4D6B5C75
:100B70004568DD40C560354D6D6805F44041890B21
:100B80003A4D6B5CC568B5FBF3F5056130BD29B125
:100B90002E4A526902432D4B5A6104E02B4A526996
:100BA00082432A4B5A61704729B1284A926902430D
:100BB000264B9A6104E0254A92698243234B9A614D
:100BC000704729B1214AD2690243204BDA6104E01F
:100BD0001E4AD26982431D4BDA61704729B11B4A14
:100BE000D2680243194BDA6004E0184AD2688243A3
:100BF000164BDA60704729B1144A12690243134B4D
:100C00001A6104E0114A12698243104B1A6170475D
:100C100012494039086070470F49C86470470B4952
:100C2000C87170470948406A40F0807007494862BF
:100C3000704701460020054A92680A400AB1012027
:100C400000E00020704701498872704700100240A0
:100C50000000FFF8FFFFF6FE00004242800442421F
:100C600000127A0000093D00000000201000002062
:100C700010B50446FE48844208D10121C014FFF794
:100C8000ADFF0021E014FFF7A9FFC4E0B4F1804FED
:100C900008D101210846FFF7AEFF00210120FFF730
:100CA000AAFFB8E0F348844208D101210220FFF7EF
:100CB000A2FF00210220FFF79EFFACE0EE48844235
:100CC00008D101210420FFF796FF00210420FFF73F
:100CD00092FFA0E0E948844208D101210820FFF7F3
:100CE0008AFF00210820FFF786FF94E0E448844251
:100CF00008D101211020FFF77EFF00211020FFF70F
:100D00007AFF88E0DF48844208D101212020FFF7E4
:100D100072FF00212020FFF76EFF7CE0DA4884425A
:100D200008D101214014FFF759FF00216014FFF79B
:100D300055FF70E0D548844209D10121C804FFF76E
:100D40004DFF00214FF40020FFF748FF63E0D0483B
:100D5000844209D101210805FFF740FF00214FF42B
:100D60008010FFF73BFF56E0CA48844209D10121B9
:100D70004805FFF733FF00214FF40010FFF72EFF67
:100D800049E0C548844208D101214020FFF733FFE4
:100D900000214020FFF72FFF3DE0C048844208D1EA
:100DA00001218020FFF727FF00218020FFF723FF8C
:100DB00031E0BB48844208D101218015FFF71BFFB9
:100DC0000021A015FFF717FF25E0B648844209D19E
:100DD00001210804FFF702FF00214FF48030FFF7E4
:100DE000FDFE18E0B048844209D101214804FFF714
:100DF000F5FE00214FF40030FFF7F0FE0BE0AB48AA
:100E0000844208D101218804FFF7E8FE00214FF455
:100E10008020FFF7E3FE10BD00220288944B984229
:100E20000ED0994B98420BD0B0F1804F08D0914B27
:100E3000984205D0904B984202D0904B984204D1F2
:100E40004FF68F731A404B881A438D4B984207D048
:100E50008C4B984204D04FF6FF431A40CB881A437C
:100E600002808B8883850B880385814B98420BD049
:100E7000854B984208D08B4B984205D08A4B9842BC
:100E800002D08A4B984201D10B7A038601238382D8
:100E9000704770B5002400220023058C4FF6FE76C3
:100EA00035400584028C8388048B4FF68F752C4067
:100EB000B51E2C400D882C43751E2A400D892A43EF
:100EC0004D882A436A4DA8420BD06F4DA84208D0E6
:100ED000744DA84205D0744DA84202D0734DA8426B
:100EE00013D14FF6F7752A404D892A434FF6FB750B
:100EF0002A408D882A434FF6FF652B404FF6FF5559
:100F00002B408D892B43CD892B4383800483CD884F
:100F10008586028470BD70B5002400220023058CF4
:100F20004FF6EF7635400584028C8388048B48F6B3
:100F3000FF752C404FF6FF452C400D884FF6FF768D
:100F400006EA05252C434FF6DF752A400D8906EA8F
:100F500005152A434D8806EA05152A43444DA84243
:100F600002D0494DA8421DD14FF67F752A404D89C8
:100F70004FF6FF7606EA05152A434FF6BF752A405D
:100F80008D8806EA05152A434FF6FF352B404FF2B0
:100F9000FF752B408D8906EA85052B43CD8906EA2E
:100FA00085052B4383800483CD880587028470BD2B
:100FB00070B5002400220023058C4FF6FF663540F3
:100FC0000584028C8388848B4FF68F752C404FF6F6
:100FD000FC752C400D882C434FF6FF552A400D8997
:100FE0004FF6FF7606EA05252A434D8806EA0525D1
:100FF0002A431F4DA84202D0234DA8421DD14FF2D3
:10100000FF752A404D894FF6FF7606EA05252A43EB
:101010004FF6FF352A408D8806EA05252A434EF60D
:10102000FF752B404DF6FF752B408D8906EA05159F
:101030002B43CD8906EA05152B4383808483CD8815
:101040008587028470BD70B5002200230024058CC2
:101050004EF6FF7635400584038C8488828B48F6F3
:10106000FF752A404FF6FF452A400D8820E000001A
:10107000002C01400004004000080040000C00402B
:10108000001000400014004000340140004C0140BA
:10109000005001400054014000180040001C004076
:1010A0000020004000400140004401400048014051
:1010B0004FF6FF7606EA05252A434DF6FF752B40CD
:1010C0000D8906EA05352B434D8806EA05352B4385
:1010D000FA4DA84202D0FA4DA84208D14BF6FF754E
:1010E0002C408D894FF6FF7606EA85152C438480C7
:1010F0008283CD88A0F84050038470BD828B4FF26C
:10110000FF331A408283828B4FF6FF7303EA012379
:101110001A4382837047F0B50C4615460022002121
:101120000026078C4EF6FF7C07EA0C070784828BAB
:10113000018C4FF6FF7707EA043640F6FF473A4046
:101140004FF6FF7707EA05273A434FF6FF7707EA9E
:1011500003373A43D94FB8420ED0D94FB8420BD0DB
:10116000B0F1804F08D0D74FB84205D0D64FB84223
:1011700002D0D64FB84206D14DF6FF77394046F43B
:101180008057394305E047F6FF57394044F480570C
:10119000394382830184F0BD828B4FF6F3731A408A
:1011A0008283828B0A4382837047F0B50C461546D2
:1011B000002200210026078C4FF6FF6C07EA0C077F
:1011C0000784828B018C4FF6FF7707EA04264FF6DF
:1011D0000C773A404FF6FF7707EA03172F433A435D
:1011E000B64FB8420ED0B64FB8420BD0B0F1804FD8
:1011F00008D0B44FB84205D0B34FB84202D0B34F75
:10120000B84206D14FF6FF57394046F4807739434C
:1012100005E04FF2FF57394044F480773943828329
:101220000184F0BD028B4FF2FF331A400283028B20
:101230004FF6FF7303EA01231A4302837047F0B5A8
:101240000C461546002200210026078C4FF6EF7C45
:1012500007EA0C070784028B018C4FF6FF7707EA39
:10126000041640F6FF473A404FF6FF7707EA033788
:101270003A434FF6FF7707EA05273A438F4FB842C4
:101280000ED08F4FB8420BD0B0F1804F08D08D4FA9
:10129000B84205D08C4FB84202D08C4FB84206D12C
:1012A0004FF6DF77394046F01007394305E04FF637
:1012B0005F77394044F01007394302830184F0BD61
:1012C000028B4FF6F3731A400283028B0A430283A8
:1012D0007047F0B50C46154600220021068C4FF6EB
:1012E000FE773E400684028B018C4FF60C7632402E
:1012F0007E1C06EA03162E433243704EB0420ED0D7
:101300006F4EB0420BD0B0F1804F08D06D4EB0425E
:1013100005D06D4EB04202D06C4EB04206D14FF6B1
:10132000FD76314044F00106314305E04FF6F57695
:10133000314044F00106314302830184F0BD70B5B1
:1013400005460C465D4885420ED05D4885420BD06F
:10135000B5F1804F08D05B48854205D05A48854298
:1013600002D05A48854200D100E000BF208850B921
:101370002389A28861882846FFF7ABFFE1882846C9
:10138000FFF79EFF25E0208804280AD12389A28840
:1013900061882846FFF753FFE1882846FFF742FFA0
:1013A00017E0208808280AD12389A2886188284666
:1013B000FFF7FBFEE1882846FFF7EEFE09E02389F0
:1013C000A28861882846FFF7A6FEE1882846FFF735
:1013D00095FE70BD2DE9F04105460C46002601271B
:1013E000608808B9022600E00026A088012801D103
:1013F000022700E001272088A0B92389A2886188FC
:101400002846FFF766FFE1882846FFF759FF238942
:101410003A4631462846FFF712FFE1882846FFF793
:1014200001FF13E02389A28861882846FFF707FFA0
:10143000E1882846FFF7F6FE23893A4631462846DA
:10144000FFF747FFE1882846FFF73AFFBDE8F08144
:101450000A884B881A438B881A43CB881A430B8916
:101460001A434B891A438B891A43A0F844207047CA
:101470004FF6FF71818000210180C180418001729F
:1014800070470021018041808180C18001814181BC
:101490008181C181704700210180418001218180CB
:1014A0000021C1800181704700210180418081803D
:1014B000C18001814181818170470000002C014081
:1014C000003401400004004000080040000C0040CF
:1014D00021B1028842F00102028004E002884FF646
:1014E000FE731A400280704731B1B0F8442042F4D4
:1014F0000042A0F8442005E0B0F84420C2F30E02F8
:10150000A0F8442070471AB183890B43838102E01D
:1015100083898B43838170478182704741EA02034C
:10152000A0F8483070471AB183890B43838102E0E9
:1015300083898B438381704701894FF6F87211408C
:10154000018170470A46002101894FF68F731940C7
:1015500011430181704730B504460D4629462046A7
:10156000FFF7F0FF208940F00700208130BD2DE912
:10157000F04104460D4616461F46602D06D13B46F7
:10158000012231462046FFF75AFE05E03B46012284
:1015900031462046FFF79DFE29462046FFF7D2FF41
:1015A000208940F007002081BDE8F08130B50C466D
:1015B00000210189C9B24FF6FF7505EA03251543DD
:1015C00025432943018130BD2DE9F04105460E46F2
:1015D00017469846002443463A4631462846FFF7C8
:1015E000E5FF2C894FF6F870044044F007044FF6ED
:1015F0008F70044044F070042C81BDE8F081F0B598
:1016000004460D4616461F463B46324629462046AE
:10161000FFF7CCFF208940F480402081F0BD018598
:10162000828270470A46002101884FF68F73194065
:10163000114301807047F0B50C4615461E46002147
:10164000002200230189028B038C4FF6F877394082
:1016500021434FF6FC473A4040F201173A434FF618
:10166000DD773B404FF6FF7707EA06172F433B43F2
:10167000018102830384F0BD0A460021018B4FF6ED
:101680008F7319401143018370470A460021018B73
:1016900048F6FF7319404FF6FF7303EA022319431C
:1016A000018370470A460021818B4FF68F731940E2
:1016B0001143818370470A460021818B48F6FF73EE
:1016C00019404FF6FF7303EA0223194381837047E1
:1016D00021B1028842F08002028004E002884FF6C5
:1016E0007F731A400280704721B1828842F0040261
:1016F000828004E082884FF6FB731A408280704734
:1017000021B1828842F00802828004E082884FF68C
:10171000F7731A408280704721B1828842F001023B
:10172000828004E082884FF6FE731A408280704700
:101730000A460021018B4FF6F773194011430183CC
:1017400070470A460021018B4FF2FF7319404FF694
:10175000FF7303EA02231943018370470A460021FD
:10176000818B4FF6F77319401143818370470A4606
:101770000021818B4FF2FF7319404FF6FF7303EA8C
:1017800002231943818370470A460021018B4FF6DB
:10179000FB7319401143018370470A460021018BF6
:1017A0004FF6FF3319404FF6FF7303EA0223194344
:1017B000018370470A460021818B4FF6FB73194065
:1017C0001143818370470A460021818B4FF6FF3316
:1017D00019404FF6FF7303EA0223194381837047D0
:1017E0000A460021018B4FF67F7319401143018394
:1017F00070470A460021018BC1F30E014FF6FF73BB
:1018000003EA02231943018370470A460021818BB2
:101810004FF67F7319401143818370470A460021B8
:10182000818BC1F30E014FF6FF7303EA02231943C4
:10183000818370470A460021018C4FF6FD731940E1
:101840001143018470470A460021018C4FF6F7735B
:1018500019401143018470470A460021018C4FF65C
:10186000DF7319404FF6FF7303EA02131943018433
:1018700070470A460021018C4FF67F7319404FF6DE
:10188000FF7303EA02131943018470470A460021DB
:10189000018C4FF6FF5319404FF6FF7303EA022302
:1018A0001943018470470A460021018C4FF2FF73EF
:1018B00019404FF6FF7303EA02231943018470476E
:1018C0000A460021018C4DF6FF7319404FF6FF7355
:1018D00003EA023319430184704730B50023012421
:1018E0008C40A3B2048C9C430484048C02FA01F55E
:1018F000ADB22C43048430BD30B5002304248C40A9
:10190000A3B2048C9C430484048C02FA01F5ADB2AA
:101910002C43048430BD70B50346002000241846D3
:10192000183001258D40ACB21D8CA5431D8409B132
:10193000082909D100EB6100056825F070050560F4
:101940000568154305600EE00D1FC5F34E052844DC
:10195000056825F4E045056005684FF6FF7606EA60
:1019600002263543056070BD21B1028842F00202B3
:10197000028004E002884FF6FD731A40028070472F
:1019800021B1028842F00402028004E002884FF68E
:10199000FB731A400280704721B1828842F08002B6
:1019A000828004E082884FF67F731A4082807047FD
:1019B00002884FF6F7731A40028002880A430280B9
:1019C000704782884FF68F731A40828082880A435C
:1019D0008280704702894FF6F8731A4002810289AB
:1019E0000A430281704702894FF67F731A400281D1
:1019F00002890A430281704781847047818570475C
:101A0000818670470187704781877047A0F8401032
:101A1000704702884FF6FF431A40028002880A434B
:101A2000028070470146888E70470146088F7047D4
:101A30000146888F70470146B1F840007047014663
:101A4000888C70470146088D704702460020138A33
:101A50000B400BB1012000E000207047CA43028216
:101A6000704730B50246002000230024158A05EA9D
:101A70000103958905EA010413B10CB1012000E0CE
:101A8000002030BDCA4302827047000010B50446F2
:101A9000FB48844209D101218803FFF79FF8002108
:101AA0004FF48040FFF79AF832E0F648844209D1BB
:101AB00001214804FFF79FF800214FF40030FFF7A1
:101AC0009AF825E0F048844209D101218804FFF703
:101AD00092F800214FF48020FFF78DF818E0EB48D2
:101AE000844209D10121C804FFF785F800214FF491
:101AF0000020FFF780F80BE0E548844208D101217F
:101B00000805FFF778F800214FF48010FFF773F80D
:101B100010BD2DE9F04786B005460E460024A246CA
:101B200000BFA1460027B08900B100BF2F462C8A14
:101B30004CF6FF700440F08804432C82AC894EF6CA
:101B4000F3100440B0883189084371890843044385
:101B5000AC81AC8A4FF6FF400440B0890443AC82AC
:101B600001A8FEF7B4FFC648874202D1DDF810A0F5
:101B700001E0DDF80CA0A88900F4004040B10AEBB8
:101B8000CA0000EB0A1031684900B0FBF1F807E029
:101B90000AEBCA0000EB0A1031688900B0FBF1F8CB
:101BA0006420B8FBF0F004012009642101FB1089D6
:101BB000A88900F4004040B1322000EBC900B0FB1E
:101BC000F1F000F00700044308E0322000EB0910B8
:101BD0006421B0FBF1F000F00F0004432C8106B04B
:101BE000BDE8F0874FF41651016000218180C1806B
:101BF00001810C21418100218181704710B502468D
:101C00000020108A4FF2FF0318400B884C882343B2
:101C10008C882343CC8823431843108210BD0021B5
:101C2000018041808180C180704721B1828942F466
:101C30000052828104E082894DF6FF731A4082814E
:101C40007047F0B50346002400260025002040F62A
:101C50006A17B94200D100BF1846C1F3421401F01F
:101C60001F06012707FA06F5012C01D10C3004E00C
:101C7000022C01D1103000E014301AB107682F4354
:101C8000076002E00768AF430760F0BD1AB1838ABE
:101C90000B43838202E0838A8B4383827047028AEC
:101CA0004FF6F0731A400282028A0A43028270479A
:101CB00082894FF2FF731A40828182890A438281AE
:101CC000704721B1828942F00202828104E0828958
:101CD0004FF6FD731A4082817047028A4FF6DF7318
:101CE0001A400282028A0A430282704721B1028AA4
:101CF00042F48042028204E0028A4BF6FF731A40EB
:101D000002827047C1F308028280704701468888CA
:101D1000C0F308007047818941F00101818170475B
:101D2000028BD2B20283028B42EA01220283704705
:101D3000028B02F47F420283028B0A4302837047C4
:101D400021B1828A42F02002828204E0828A4FF628
:101D5000DF731A408282704721B1828A42F01002FA
:101D6000828204E0828A4FF6EF731A4082827047C3
:101D700021B1828A42F00802828204E0828A4FF610
:101D8000F7731A408282704721B1828942F400427F
:101D9000828103E08289C2F30E028281704721B101
:101DA000828A42F40062828204E0828A4FF2FF73E8
:101DB0001A4082827047828A4FF6FB731A408282F1
:101DC000828A0A438282704721B1828A42F00202EB
:101DD000828204E0828A4FF6FD731A408282704745
:101DE00002460020B1F5007F00D100BF13880B40F0
:101DF0000BB1012000E00020704701F40072B2F541
:101E0000007F00D100BFCA430280704770B5024610
:101E1000002400230025002040F66A16B14200D1BC
:101E200000BFC1F3421501F01F03012606FA03F3B8
:101E3000012D02D19689334006E0022D02D1168A87
:101E4000334001E0968A33400C12012606FA04F46E
:101E50001688344013B10CB1012000E0002070BDA1
:101E600010B50022002340F66A14A14200D100BF41
:101E70000A1201249440A3B2DC43048010BD000088
:101E8000003801400044004000480040004C004041
:101E9000005000400CB50020019000906C48006894
:101EA00040F480306A49086000BF6948006800F467
:101EB000003000900198401C0190009818B90198DA
:101EC000B0F5A06FF1D16248006800F4003010B1A5
:101ED0000120009001E0002000900098012843D1EB
:101EE0005C48006840F010005A49086008460068E5
:101EF00020F0030008600846006840F00200086017
:101F0000534840685249486008464068486008465F
:101F1000406840F4806048600846406820F47C10C7
:101F200048600846406840F4E81048600846006889
:101F300040F08070086000BF4548006800F0007005
:101F40000028F9D04248406820F00300404948602A
:101F50000846406840F00200486000BF3C484068C6
:101F600000F00C000828F9D10CBD10B5FFF792FF66
:101F700010BD10B53648006840F0010034490860D3
:101F800008464068344908403149486008460068BE
:101F9000324908402E4908600846006820F4802035
:101FA00008600846406820F4FE0048604FF41F00B7
:101FB0008860FFF7DAFF4FF000602949086010BD24
:101FC00010B5002100200022214B5B6803F00C01BA
:101FD00021B1042906D0082928D107E0214B224C41
:101FE000236027E01F4B204C236023E0184B5B68E5
:101FF00003F47010164B5B6803F48032022303EB8A
:10200000904022B9194B4343174C23600DE0104B0D
:102010005B6803F4003323B1144B4343124C236039
:1020200003E0104B4343104C236003E00D4B0E4C78
:10203000236000BF00BF064B5B68C3F303130C4C67
:10204000E15C094B1B68CB40074C236010BD0000CE
:1020500000100240002002400000FFF8FFFFF6FEE3
:1020600008ED00E000127A001400002000093D0095
:102070001800002008B501211820FEF795FD4FF447
:102080000050ADF8000010208DF8030003208DF8FB
:10209000020069461D48FEF7CBFA0120ADF80000AA
:1020A00010208DF8030003208DF8020069461848BF
:1020B000FEF7BEFA0220ADF8000010208DF80300F4
:1020C00003208DF8020069461148FEF7B1FA08BDF9
:1020D000012806D10D49C96881F400510B4AD1602D
:1020E00012E0022808D10A490C31096881F0010187
:1020F000074A0C32116007E005490C31096881F08C
:102100000201034A0C3211607047000000100140C8
:10211000000C0140F0B58BB007460C4615461E4634
:1021200001210846FEF733FD3846FEF769F80094B2
:1021300001951020029003960020049080200590C5
:1021400000200690079008904FF4805009900020DE
:102150000A9069463846FEF7F5F80BB0F0BD70B549
:1021600004460D4600212046FEF717F92946204671
:10217000FEF728F901212046FEF70FF970BD000097
:1021800070B506460C4600250020E94908804FF44A
:102190008061E84801F08BFF3146E7A000F0DCFDEC
:1021A00000BF0AE0E6A1E34801F08CFF00B106E0C1
:1021B000642000F088FE681C85B2A542F2DB00BFF7
:1021C000A54201DB012070BD0020FCE72DE9F041B4
:1021D00006460F4690461C4600250020D44908803C
:1021E0004FF48061D34801F062FF43463A463146DE
:1021F000D5A000F0B1FD00BF0AE0DAA1CD4801F0A2
:1022000061FF00B106E0642000F05DFE681C85B24D
:10221000A542F2DB00BFA54202DB0120BDE8F08150
:102220000020FBE770B504460020C14908804FF448
:102230008061C04801F03BFFCBA000F08DFD002580
:102240000AE0CCA1BB4801F03DFF00B106E06420EC
:1022500000F039FE681C85B2A542F2DB00BFA54242
:1022600001DB012070BD0020FCE710B53220FFF734
:10227000D9FF08B1012010BDC0A002F0A3FC32219B
:10228000C3A0FFF77DFF08B10220F4E7C3A002F06E
:1022900099FCC8A002F096FCCCA002F093FCD1A05F
:1022A00002F090FCD4A002F08DFC32230422D9A1CC
:1022B000DBA0FFF78BFF08B10320DCE7DCA002F016
:1022C00081FC3221E0A0FFF75BFF08B10420D2E7D8
:1022D000E1A002F077FC3221E5A0FFF751FF08B141
:1022E0000520C8E7E5A002F06DFCEBA002F06AFC57
:1022F0003221F1A0FFF744FF08B10620BBE7F4A0AC
:1023000002F060FC3221F9A0FFF73AFF08B1072084
:10231000B1E70020AFE72DE9F04106460F4614462D
:1023200000250020824908804FF48061814801F037
:10233000BEFE3A463146F2A000F00EFD00BF0AE0B4
:10234000F5A17C4801F0BEFE00B106E0642000F07B
:10235000BAFD681C85B2A542F2DB00BFA54202DBD4
:102360000120BDE8F0810020FBE72DE9F041804627
:102370000E46002700206E4908804FF480616D48AA
:1023800001F095FEEDA000F0E7FC00BF0AE06CA1B3
:10239000684801F097FE00B106E0642000F093FD6C
:1023A000781C87B2B742F2DB00BFB74202DB0120E4
:1023B000BDE8F081E4A15F4801F084FE04469CB1D1
:1023C000E1A1601C01F07EFE05465DB1281B421EA6
:1023D000611C404601F052FE4146DCA002F0F2FBD7
:1023E0000020E5E70320E3E70220E1E700B587B03E
:1023F0000020049005900690019002900390D9A1CE
:102400004C4801F05FFEA0B101AB04AAD7A1494836
:1024100001F072FE04A9D8A002F0D4FB00204449C8
:1024200008804FF48061434801F041FE012007B06D
:1024300000BDD7A13F4801F045FE98B101AB04AA09
:10244000CAA13C4801F058FE04A9D3A002F0BAFB8F
:102450000020374908804FF48061364801F027FE9C
:102460000220E4E70020E2E72DE9FF4107460D46A0
:1024700016460020019002900390CDA12D4801F056
:1024800021FE00B3052000F01EFD334601AACAA1BB
:102490002848009501F030FECCA1264801F012FE3C
:1024A000044624B1621CCAA1384602F09BFB0020FE
:1024B0001F4908804FF480611E4801F0F8FD01209B
:1024C00004B0BDE8F0810020FAE72DE9F0470746A7
:1024D000884691461D4600240020154908804FF487
:1024E0008061144801F0E3FD4A463946B9A000F086
:1024F00033FC00BF0AE0BCA10E4801F0E3FD00B1CF
:1025000006E0642000F0DFFC601C84B2AC42F2DB29
:1025100000BFAC4202DB0120BDE8F0870020044987
:1025200008804FF48061034801F0C1FD002664E19A
:102530002A0000205C01002025730D0A0000000025
:102540000D0A4F4B0D0A000041542B435753415085
:102550003D222573222C222573222C342C25640D38
:102560000A0000004F4B000041542B5253540D0AF7
:102570000000000072656164790000004553503826
:10258000323636C8EDB8B4CEBBB3C9B9A60D0A0011
:1025900041542B43574D4F44453D3200455350382D
:1025A000323636C9E8D6C34150C4A3CABDB3C9B98F
:1025B000A60D0A0045535038323636D7BCB1B8C9DB
:1025C000E8D6C34150B2CECAFD0D0A005353494468
:1025D000A3BA51756575696E674D61737465720D47
:1025E0000A000000C3DCC2EBA3BA31323334353603
:1025F000373839300D0A0000BCD3C3DCB7BDCABDC3
:10260000A3BA5750415F575041325F50534B0D0AA8
:1026100000000000313233343536373839000000DD
:1026200051756575696E674D617374657200000060
:1026300045535038323636C9E8D6C34150B2CECAB7
:10264000FDB3C9B9A60D0A0041542B4349504D4F63
:1026500044453D300000000045535038323636B90D
:10266000D8B1D5CDB8B4ABB3C9B9A60D0A00000036
:1026700041542B4349504D55583D31004553503836
:10268000323636BFAAC6F4B6E0C2B7C1ACBDD3B3CA
:10269000C9B9A60D0A000000C9E8D6C34150C4A3B9
:1026A000CABD4950B5D8D6B7A3BA3139322E313662
:1026B000382E312E310D0A0041542B4349504150E0
:1026C0003D223139322E3136382E312E3122000062
:1026D00045535038323636C9E8D6C34150C4A3CA30
:1026E000BD4950B3C9B9A60D0A00000041542B439F
:1026F00049505345525645523D312C353035300006
:1027000041542B43574A41503D222573222C222508
:1027100073220D0A000000005749464920434F4EDE
:102720004E45435445440D0A5749464920474F54A6
:102730002049500D0A0D0A4F4B0D0A0041542B43FE
:10274000494653520D0A00002200000045535038FC
:10275000323636B5C44950B5D8D6B7A3BA25730DAD
:102760000A000000434F4E4E45435400255B5E2C4B
:102770005D2C255B5E2C5D00D3D0BFCDBBA7B6CB57
:10278000BDD3C8EBA3AC49443D25730D0A0000003E
:10279000434C4F5345440000D3D0BFCDBBA7B6CB6D
:1027A000B6CFBFAAA3AC49443D25730D0A00000073
:1027B0002B49504400000000255B5E2C5D2C255BFE
:1027C0005E2C5D2C255B5E3A5D0000003A00000047
:1027D0002573000041542B43495053454E443D2539
:1027E000642C25640D0A00003E00000018F8061055
:1027F00085A000F0B1FA701C86B24E45F6DB0024CD
:1028000021E082A1834801F05DFC40B100208249B3
:1028100008804FF480617F4801F049FC15E07FA1FA
:102820007C4801F04FFC48B100207B4908804FF400
:102830008061784801F03BFC02206DE6642000F0E6
:1028400042FB601C84B2AC42DBDB00BFAC4201DB6C
:10285000032061E600205FE62DE9F04106460F46C1
:102860001546002400206C4908804FF480616948B7
:1028700001F01DFC3A4631466DA000F06DFA00BF34
:102880001BE0AFF22011634801F01CFC00B116E020
:10289000AFF204115F4801F015FC10B10120BDE852
:1028A000F0816AA15B4801F00DFC08B10220F6E757
:1028B000642000F008FB601C84B2AC42E1DB00BF86
:1028C000AC4201DB0320EAE765A002F07BF90020BF
:1028D000514908804FF480614E4801F0E8FB6AA03E
:1028E00000F03AFA00240AE06BA14A4801F0EAFB42
:1028F00000B106E0642000F0E6FA601C84B2AC424D
:10290000F2DB00BFAC4201DB0420C8E70020C6E7D1
:1029100070B50446002500203F4908804FF48061CF
:102920003C4801F0C4FB5FA000F016FA00BF0BE0CA
:10293000AFF2F431374801F0C5FB00B106E0642086
:1029400000F0C1FA681C85B2A542F1DB00BFA542C8
:1029500009DB56A002F036F95DA000F0FDF94FF456
:102960007A7000F0B0FA70BD10B50246012906D0A9
:10297000022908D0032913D0042943D125E0137874
:10298000303B98B23EE01378303B03EB83034FF6C5
:10299000FF7404EA43005378303B034498B231E0BB
:1029A0001378303B03EBC30404EB03134FF6FF74BF
:1029B00004EA83009378303B03EB830300EB43008E
:1029C000D378303B034498B21CE01378303B03EBE0
:1029D0004304C4EBC3134FF6FF7404EAC3005378F7
:1029E000303B03EBC30404EB031300EB8300937849
:1029F000303B03EB830300EB4300D378303B0344CD
:102A000098B200BF00BF10BD2563000053454E447F
:102A1000204F4B005C0100202A0000206C696E6B87
:102A2000206973206E6F742076616C696400000009
:102A300041542B43495053544152543D2254435026
:102A4000222C222573222C25640D0A00414C52456C
:102A500041445920434F4E4E4543544544000000E5
:102A600045535038323636C1ACBDD3B7FECEF1C671
:102A7000F7B3C9B9A6A3ACD7BCB1B8BDF8C8EBCD04
:102A8000B8B4AB0D0A00000041542B4349505345E4
:102A90004E440D0A000000000D0A4F4B0D0A0D0AAE
:102AA0003E00000041540D0A00000000455350381C
:102AB000323636B4A6D3DACDB8B4ABD7B4CCACA3E7
:102AC000ACD7BCB1B8CDCBB3F6CDB8B4AB0D0A0022
:102AD0002B2B2B0008B54FF4E060FDF723FB2520DE
:102AE0008DF8000003208DF801008DF80200012010
:102AF0008DF803006846FDF71AFB08BD10B586B0D7
:102B00000446012144F20400FEF74EF85148FEF756
:102B1000BDFF4FF40070ADF8140003208DF81600CF
:102B200018208DF8170005A94B48FDF781FD4FF4DB
:102B30008060ADF8140004208DF8170005A9464800
:102B4000FDF776FD01940020ADF80800ADF80A000D
:102B5000ADF80C00ADF810000C20ADF80E0001A986
:102B60003C48FEF7D6FF012240F225513948FFF7D5
:102B700068F801213748FFF758F8FFF7ABFF06B0B8
:102B800010BD10B540F225513248FFF73FF910B3A0
:102B90003048FFF7BBF8C4B23048008800F400406A
:102BA000C8B92E48008800F4804060B10A2C03D0D8
:102BB00000202A49088020E02848008840F400408E
:102BC0002649088019E00D2C06D12448008840F4DD
:102BD00080402249088010E020480088C0F30D00A2
:102BE0001F490C541D480088401C1C490880084699
:102BF0000088FF2801DD0020088010BD10B50446C4
:102C000021461448FFF77EF800BF40211148FFF726
:102C1000E7F80028F9D010BD70B505460E4600242F
:102C200004E0285DFFF7EAFF601CC4B2B442F8DBA1
:102C300070BD70B504460D46E1B20648FFF762F874
:102C400000BF40210348FFF7CBF80028F9D0204609
:102C500070BD00000038014000080140280000203D
:102C60005C00002008B54FF4E060FDF75BFA262019
:102C70008DF8000002208DF801008DF8020001207F
:102C80008DF803006846FDF752FA08BD10B586B00E
:102C9000044601210420FDF787FF01214804FDF7C8
:102CA00090FF3B48FEF7F2FE0420ADF8140003202D
:102CB0008DF8160018208DF8170005A93548FDF786
:102CC000B7FC0820ADF8140004208DF8170005A902
:102CD0003048FDF7ADFC01940020ADF80800ADF8D8
:102CE0000A00ADF80C00ADF810000C20ADF80E0095
:102CF00001A92748FEF70DFF01212548FEF795FFA2
:102D0000012280212248FEF7C1FF4FF48063224A4E
:102D10001F49091D2148FFF7FDF9012240F2255105
:102D20001B48FEF78EFF41F61F41632000F04FF86D
:102D3000FFF798FF00201A49088006B010BD14481C
:102D4000001D00881749164A1288885414480088C4
:102D5000401C1349088070470FB438B505A800908F
:102D60000D48009A049901F051FF002000900A4894
:102D700001F0BAF984B221460848FFF7F0F900BF24
:102D80000648001D00680028FAD138BC5DF814FB25
:102D900000440040000801405C0500208000024023
:102DA0002A0000205C01002008B54FF4E060FDF728
:102DB000B9F91C208DF8000001208DF801008DF874
:102DC00002008DF803006846FDF7B1F908BD3EB575
:102DD00005460C4601210846FDF7F3FE4FF0804002
:102DE000FDF746FF4FF08040FEF7A6FBADF804501C
:102DF000ADF800400020ADF80600ADF802006946CD
:102E00004FF08040FEF708F801218807FEF726FE04
:102E100000214FF08040FEF75BFC01221146900735
:102E2000FEF771FB00214FF08040FEF751FBFFF7EA
:102E3000BBFF3EBD10B50848008840F4004006497D
:102E4000088000214FF08040FEF742FB01218807F7
:102E5000FEF718FE10BD00002A00002030B500BFAC
:102E60001F4800681F4AB0FBF2F1B1F1807F01D327
:102E700001201DE021F07F40401E4FF0E022506114
:102E800050170F22002807DA13071D0E164B00F00B
:102E90000F04241F1D5503E013071C0E134B1C5475
:102EA00000BF00204FF0E022906107201061002059
:102EB0000028D5D130BD0E49088000BF0C490988D3
:102EC0000029FBD1704700B5024603E04FF47A7049
:102ED000FFF7F1FF1000A2F101018AB2F6D100BDA7
:102EE0001400002040420F0018ED00E000E400E074
:102EF0005200002000E0401E0028FCD1704710B5B1
:102F00000A461023FC4C236020232360012A03D1AE
:102F10008023241F236002E08023F74C23602023BA
:102F2000F54C241F2360002114E000F0800323B13E
:102F30008023F14C241F236002E08023EE4C2360A9
:102F40002023ED4C23604306180E2023241F23600A
:102F50004B1CD9B20829E8DB1023E74C241F23605F
:102F600010BD30B500241CE004F1B001C8B200214E
:102F7000FFF7C5FF00210846FFF7C1FF0021102021
:102F8000FFF7BDFF002508E0DC4901EBC411485DF7
:102F90000121FFF7B4FF681CC5B2802DF4DB601C73
:102FA000C4B2082CE0DB30BD08B501210420FDF7D8
:102FB000FBFD1020ADF8000003208DF8020010206A
:102FC0008DF803006946CC481438FDF731FB20200A
:102FD000ADF8000003208DF8020010208DF80300EA
:102FE0006946C5481438FDF723FB4020ADF80000C2
:102FF00003208DF8020010208DF803006946BE48BA
:103000001438FDF715FB8020ADF8000003208DF883
:10301000020010208DF803006946B7481438FDF708
:1030200007FB1020B449091F086008BD10B5FFF761
:10303000BBFFB348FFF75EFF0021AE20FFF75FFF45
:1030400000210846FFF75BFF00211020FFF757FF24
:1030500000214020FFF753FF00218120FFF74FFFA1
:103060000021CF20FFF74BFF0021A120FFF747FFF2
:103070000021A620FFF743FF0021A820FFF73FFF14
:1030800000213F20FFF73BFF0021D320FFF737FF50
:1030900000210846FFF733FF0021D520FFF72FFF5F
:1030A00000218020FFF72BFF0021D920FFF727FF09
:1030B0000021F120FFF723FF0021DA20FFF71FFF97
:1030C00000211220FFF71BFF0021DB20FFF717FF75
:1030D00000214020FFF713FF00218D20FFF70FFF95
:1030E00000211420FFF70BFF0021AF20FFF707FF9F
:1030F00010BD30B500241CE004F1B001C8B20021BD
:10310000FFF7FDFE00210846FFF7F9FE0021102021
:10311000FFF7F5FE002508E0784901EBC411485D92
:103120000121FFF7ECFE681CC5B2802DF4DB601CAA
:10313000C4B2082CE0DB30BD70B5064600240BE0BD
:10314000002505E06D4800EBC4104655681CC5B26B
:10315000802DF7DB601CC4B2082CF1DB69480078D5
:10316000012801D1FFF7C5FF70BD10B5FFF75EFF65
:103170000020FFF7E1FF002063490880012048801C
:1031800000208880C8800120604908804880002095
:1031900088800120C88010BD00B500218D20FFF778
:1031A000AEFE00211420FFF7AAFE0021AF20FFF79A
:1031B000A6FE00BD00B500218D20FFF7A0FE002176
:1031C0001020FFF79CFE0021AE20FFF798FE00BD07
:1031D00000204C490870704710B50120494908701B
:1031E000FFF787FF10BD2DE9FF4380460C4691464F
:1031F00047A103C9CDE9020147A103C9CDE90001F7
:103200002046E11704EB5171C910C1F10701CFB29B
:1032100008F0FF06394800EBC710855DB9F1000FD3
:103220000AD12046E11704EB5171C910A4EBC1018A
:103230001DF801100D4009E02046E11704EB517123
:10324000C910A4EBC10102AA515C0D432B4800EB4D
:10325000C71085552B480078012814D107F1B0011B
:10326000C8B20021FFF74BFE06F00F000021FFF768
:1032700046FE102101EB16100021FFF740FE012150
:103280002846FFF73CFEBDE8FF832DE9FF4F9BB0CA
:1032900090469946B9F80000012807D10C20059006
:1032A0000C2718241E4802901E4E06E010200590A0
:1032B000102720241C4802901C4EB0E098F8000013
:1032C0001A901A98802833DA019404EBD4704FEAEC
:1032D000600C00941A9B029803FB0C0104EBD47061
:1032E000421007A800F0CAFE384607EBD071C1F3C0
:1032F000470106914EE00000140801405C090020DF
:10330000FFFF0F003C000020340000202C000020B4
:1033100080402010080402017FBFDFEFF7FBFDFEB5
:10332000AE560008A26C0008A25C0008A86D000858
:1033300008F10100804600781990199800B973E0EF
:103340004FF0000A23E0A01C0AFB00F50AF101007F
:1033500000F0FF0A715D1A9881420BD1681C315C44
:103360001998814206D1AD1C7119224607A800F0B8
:1033700085FE0DE0705DFF2809D1681C305CFF28D8
:1033800005D1FF22214607A800F08AFE00E0DAE717
:1033900000BF06971C9803904FF0000A32E01B987C
:1033A00004904FF0000B22E00698400090FBF7F0ED
:1033B00000FB0AF000EBDB0007A9085C0BF007023A
:1033C00080211141084030B199F80220DDE9031055
:1033D000FFF709FF05E099F80420DDE90310FFF786
:1033E00002FF0498401C80B204900BF1010B069878
:1033F0008345D9D30398401C80B203900AF10100A1
:1034000000F0FF0A05988245C9DBB9F80610069856
:1034100001441B98084480B21B9008F1010898F8F9
:10342000000000287FF44AAF00BF1FB0BDE8F08F56
:1034300070B502460846CE1701EB5676F610C6F177
:103440000706F4B2D5B2FC4800EBC410435DCE17BA
:1034500001EB5676F610A1EBC6061E400EB1012018
:1034600070BD0020FCE72DE9F04F86B004460D4604
:1034700016461F46294620460F9AFFF7B4FEB4426F
:1034800004D1BD4202D106B0BDE8F08F002001900A
:10349000A64202DBA6EB040801E0A4EB0608AF425B
:1034A00002DBA7EB050901E0A5EB0709C8450CDA2B
:1034B0000121019120462C46054630463E460746EE
:1034C0001FFA88F0C846814600BFA64201DD0120F0
:1034D00001E04FF0FF300590AF4201DD012001E037
:1034E0004FF0FF300490A24600954FEA4900039048
:1034F000A9EB0800400002900398A0EB080B1EE027
:10350000BBF1000F02DA0398834405E004990098A8
:103510000844009002988344019838B11FFA8AF158
:10352000009A90B20F9AFFF75EFE06E0009A91B201
:103530001FFA8AF00F9AFFF756FE05988244B245AB
:10354000DED100BF9FE72DE9F84105460E4617463C
:10355000984600240FE004F1010CCDF8008036F805
:103560001C3035F81C2036F8141035F81400FFF71D
:103570007AFF601C84B2781EA042ECDCBDE8F881C2
:103580002DE9F84104460D4616461F46DDF81C801D
:10359000E019401E82B22B4629462046CDF8008015
:1035A000FFF761FFA819401E83B2E019401E82B2E6
:1035B000A819401E81B22046CDF80080FFF753FFC6
:1035C000A819401E83B2224629462046CDF8008025
:1035D000FFF749FFA9198BB2E119491E8AB2E11917
:1035E000491E88B22946CDF80080FFF73CFFBDE8B0
:1035F000F8812DE9F04706460F4690469A4603208B
:10360000A0EB48090024454646E07A1991B23219E8
:1036100090B25246FFF7E7FD7A1B91B2321990B291
:103620005246FFF7E0FD7A1991B2321B90B2524632
:10363000FFF7D9FD7A1B91B2321B90B25246FFF7C9
:10364000D2FD3A1991B2721990B25246FFF7CBFDF2
:103650003A1B91B2721990B25246FFF7C4FD3A1963
:1036600091B2721B90B25246FFF7BDFD3A1B91B268
:10367000721B90B25246FFF7B6FDB9F1000F04DAA3
:10368000062000EB8400814405E0601B0A2101EB69
:10369000800081446D1E641CAC42B6D9BDE8F08741
:1036A0002DE9F04706460F4690469946DDF820A0E2
:1036B00000240FE0002509E09AF800207B1999B258
:1036C000331998B2FFF78FFD681C85B24545F3DBCF
:1036D000601C84B24C45EDDBBDE8F0872DE9FE4F60
:1036E0008046894616469A460927354600208DF8B9
:1036F0000A000A2410E00A20B5FBF0F100FB11508B
:103700003030611E0DF801000A20B5FBF0F50DB157
:10371000781EC7B2601EC4B2BC4201DD012000E0C9
:103720000020002C01DD012100E0002108400028DC
:10373000E1D10DEB0402534649464046FFF7A5FD93
:10374000BDE8FE8F10B50246012000E050430B009B
:10375000A1F10104E1B2F9D110BD2DE9FF5F8AB0FA
:1037600015461E46DDF860A04FF0090B284631468D
:1037700000F0A4FE099051460A20FFF7E3FF074638
:1037800000F070FECDE90201099800F05AFE0746EC
:103790002A46334600F0E0FDCDE90001DDE90223D1
:1037A00000F0DDFDCDE9040100F069FE8146002056
:1037B0008DF82200002406E03020C4F1090106AA99
:1037C0005054601CC4B25445F6DB0A2415E00A20AC
:1037D00099FBF0F100FB11903030C1B2601E06AAD7
:1037E00011540A2099FBF0F9B9F1000F03D0ABF1A5
:1037F000010000F0FF0B601EC4B25C4501DD01203A
:1038000000E00020002C01DD012100E00021084043
:103810000028DCD12E20CAF1090106AA5054CAF1B1
:103820000900C4B2CAF1080000F0FF0B2846314677
:1038300000F044FE814617E05C0900200A2099FB55
:10384000F0F100FB11903030C1B2601E06AA115495
:103850000A2099FBF0F9B9F1000F03D0ABF1010098
:1038600000F0FF0B601EC4B25C4501DD012000E0EA
:103870000020002C01DD012100E00021084000288B
:10388000DCD106A80219199BDDE90A01FFF7FDFC4E
:103890000EB0BDE8F09F00001CB5044601210846AB
:1038A000FDF782F905210120FCF7D8FF082101204E
:1038B000FCF7D4FF09210120FCF7D0FF4FF448703A
:1038C000009000208DF804000C208DF80500012CDC
:1038D00003D101208DF8060002E000208DF80600DB
:1038E0006846FCF7C5FD1CBD08B54FF4E060FCF769
:1038F00019FC17208DF8000001208DF80100002030
:103900008DF8020001208DF803006846FCF70FFCDB
:1039100008BD10B52020FCF711FE70B123480068E7
:1039200020F02000214908602020FCF718FE01202B
:10393000FEF7CEFB01201E4908704FF48070FCF7A3
:10394000FDFD70B11948006820F4807017490860C7
:103950008815FCF704FE0220FEF7BAFB012014498B
:1039600008704FF40070FCF7E9FD70B10F48006873
:1039700020F400700D4908604815FCF7F0FD0320A5
:10398000FEF7A6FB01200A4908700848006840F0CD
:103990002000064908600846006840F4807008600E
:1039A0000846006840F40070086010BD0004014043
:1039B0003D00002008B501210820FDF7F5F8202082
:1039C000ADF8000048208DF8030069460C48FCF76C
:1039D0002FFE4FF48070ADF8000048208DF80300F2
:1039E00069460748FCF724FE4FF40070ADF800006C
:1039F00048208DF8030069460148FCF719FE08BD10
:103A0000000C014008B501210420FDF7CDF802208B
:103A1000ADF8000010208DF8030003208DF802009F
:103A200069460F48FCF704FE08BD70B50446002542
:103A300013E0012202210A48FCF7ABFE4FF4FA70B2
:103A4000FFF739FA002202210548FCF7A2FE4FF4E5
:103A5000FA70FFF730FA681C85B2A542E9DB70BD49
:103A60000008014010B525A001F0ACF810BD1CB550
:103A700023A103C9CDE9000105216846FFF7CCF871
:103A80001CBD1CB520A103C9CDE900010521684674
:103A9000FFF7C2F81CBD10B51DA001F093F825A0DA
:103AA00001F090F81AA001F08DF829A001F08AF831
:103AB00010BD10B5FFF7DBFF00F0D1FA0446214638
:103AC00024A001F07FF8FFF7DCFF10BD10B500F077
:103AD000CCFA441E214627A001F074F82BA001F077
:103AE00071F833A001F06EF810BD10B5FFF7D3FFE9
:103AF000FFF7DFFFFFF7EAFF10BD00001B400000EB
:103B00001B401B21300000001B401B210000000057
:103B10002A2A2A2A2A2A2A2A2A2A2A2A2A2A2A2A05
:103B20002A2A2A2A2A2A2A2A2A2A2A2A2A2A2A2AF5
:103B3000000000000D0A202020202020BBB6D3ADBD
:103B4000CAB9D3C3D2F8D0D0C5C5B6D3CFB5CDB3DB
:103B50000D0A00000D0A2020C4E3B5C4B6D3C1D0BD
:103B6000BAC5C2EB0D0A2020202020202025640D9C
:103B70000A0000000D0A20B6D3C1D0C7B0C3E6BB0F
:103B8000B9D3D02564C8CB0D0A0000002A2A2A2AFE
:103B90002A2A2A2A2A2A2A2A2A2A2A2A2A2A2A2A85
:103BA0002A2A2A2A2A2A2A2A2A2A2A2A0D0A000006
:103BB0000D0A0D0A00000000002093490870FEF76E
:103BC00059FAFFF71FFFFFF7F5FEFFF747F900F07F
:103BD00035FAFFF789FEFFF7C8FA8C4B8CA200215B
:103BE0000846FFF752FB894B8EA20F210020FFF7FA
:103BF0004CFB864B90A21E210020FFF746FB834B17
:103C000092A22D210020FFF740FB40F2DC50FFF78D
:103C10005AF94FF41650FEF771FF4FF4E130FFF7F9
:103C200035F88FA000F0CEFFFEF71FFB0446082CEE
:103C30002CD2DFE804F004080D12171C212690A0F6
:103C400000F0C0FF22E095A000F0BCFF00F0CEF82D
:103C50009BA000F0B7FF00F0C9F8A3A000F0B2FFEE
:103C600000F0C4F8AAA000F0ADFF00F0BFF8B1A0CA
:103C700000F0A8FF00F0BAF8B8A000F0A3FF00F031
:103C8000B5F8C0A000F09EFF00F0B0F800BF002023
:103C9000C74908804FF48061C64800F008FA4FF425
:103CA0007A70FFF7C2FEA0E0FEF7A0FB012802D069
:103CB000022814D109E0C0A000F084FF534BC1A238
:103CC0001E210020FFF7E1FA0AE0C1A000F07AFF10
:103CD0004E4BC3A21E210020FFF7D7FA00E000BF21
:103CE00000BF2021C248FCF736FD58B14FF4807167
:103CF000BF48FCF730FD28B14FF40071BC48FCF719
:103D00002AFD18BB0A20FFF7DEF82021B848FCF78F
:103D100022FD58B14FF48071B548FCF71CFD28B165
:103D20004FF40071B248FCF716FD78B9C820FFF7D0
:103D30007CFE0120FEF7CCF90220FEF7C9F9032032
:103D4000FEF7C6F900F085F9FFF7CFFEA94AAA49A8
:103D5000AA48FEF789FB002847D0A84800785128D8
:103D600043D1A749087000F07DF9054600F077F9C6
:103D7000854205D13020A24948708870C87025E07E
:103D800000F061F900F06EF9642190FBF1F0303041
:103D90009B49487000F066F9642190FBF1F201FB49
:103DA00012000A2190FBF1F030309549887000F044
:103DB00059F9642190FBF1F201FB12000A2190FBFA
:103DC000F1F201FB120030308D49C870894800F0D3
:103DD0008BF986B231468748FEF7C6FDC5B232235D
:103DE000042287492846FEF770FB5DE78548006896
:103DF00000F4E06084490843001D82490860BFF375
:103E0000408F00BFFEE700003D0000202C00002096
:103E10004D61737465723A57616974436F6E6E6574
:103E2000637400002D2D2D2D2D2D2D2D2D2D2D2D9F
:103E30002D2D2D2D2D2D0000535349443A517565DC
:103E400075696E674D6173746572000050617373BC
:103E5000776F72643A31323334353637383900008F
:103E60000D0A45535038323636D7BCB1B8C9E8D6FA
:103E7000C3544350B7FECEF1C6F7210D0A0000002F
:103E800045535038323636C9E8D6C3544350B7FE8E
:103E9000CEF1C6F7B3C9B9A6210D0A004553503873
:103EA000323636C8EDBCFEB8B4CEBBCAA7B0DC21F2
:103EB00020D7BCB1B8D6D8C6F4CFB5CDB30D0A0063
:103EC00045535038323636C9E8D6C34150C4A3CA28
:103ED000BDCAA7B0DC2120D7BCB1B8D6D8C6F4CFB4
:103EE000B5CDB30D0A00000045535038323636C9FF
:103EF000E8D6C34150B2CECAFDCAA7B0DC212CD748
:103F0000BCB1B8D6D8C6F4CFB5CDB30D0A00000009
:103F100045535038323636B9D8B1D5CDB8B4ABCA1E
:103F2000A7B0DC212CD7BCB1B8D6D8C6F4CFB5CD5C
:103F3000B30D0A0045535038323636BFAAC6F4B620
:103F4000E0C2B7C1ACBDD3CAA7B0DC212CD7BCB18D
:103F5000B8D6D8C6F4CFB5CDB30D0A004553503806
:103F6000323636C9E8D6C34150C4A3CABD4950CA87
:103F7000A7B0DC212CD7BCB1B8D6D8C6F4CFB5CD0C
:103F8000B30D0A0045535038323636BFAAC6F4C9BD
:103F9000E8C1A2B7FECEF1C6F7CAA7B0DC212CD784
:103FA000BCB1B8D6D8C6F4CFB5CDB30D0A00000069
:103FB0002A0000205C010020B4D3BBFAC1ACBDD301
:103FC0000D0A0000436F6E6E656374656400000047
:103FD000B4D3BBFACEB4C1ACBDD30D0A000000000F
:103FE000446973636F6E6E656374656400000000FE
:103FF000000C014049000020440000205C0D00201E
:104000004E0000200CED00E00000FA05704700BFF4
:10401000FEE700BFFEE700BFFEE700BFFEE7704718
:10402000704770470448008820B103480088401E4C
:1040300001490880704700005200002000200E490E
:104040000880488070470C480088401C0A49088056
:10405000704709484088401C074948807047064817
:1040600040887047044800887047034840880249E8
:104070000988401A80B270475400002040EA0103CA
:104080009B0703D009E008C9121F08C0042AFAD20E
:1040900003E011F8013B00F8013B521EF9D27047D2
:1040A000D2B201E000F8012B491EFBD2704700227A
:1040B000F6E710B513460A4604461946FFF7F0FF27
:1040C000204610BD30B505462A460B4612F8010BB6
:1040D00013F8014B08B1A042F8D01CB1002802D05F
:1040E0006D1CF1E7284630BD421C10F8011B002969
:1040F000FBD1801A704700000FB400B58DB010A935
:1041000009900B9000914FF0FF300A9000200C9026
:1041100005480690054807906A4609A80F9900F0DF
:1041200065FA0DB05DF814FB094600082746000843
:104130002DE9FF5FD2E901A74FF000089169994688
:104140001446DDF838B0464601988847054659EAD6
:104150000B0005D009E0A169761C01988847054647
:10416000216A284688470028F5D1681C03D05FEAF9
:10417000CA7005D015E04FF0FF3004B0BDE8F09FE5
:104180002068011D2160D0F800800AE05FEACA7053
:1041900001D108F8015BA169761C7F1E0198884750
:1041A0000546002F1ADD681C18D0B9F1000F0DD09C
:1041B000E81705EBD060421120F01F0059F82210DB
:1041C0002A1A012090400142E0D107E0BBF1000F24
:1041D000DCD1216A284688470028D7D0E1690198B8
:1041E0008847BBF1000F07D1002E05DD5FEACA70DA
:1041F00002D1002188F80010A068B84203DDBBF1AD
:10420000000F03D017B16FF00100B6E73046B4E7F6
:104210002DE9FE4F804681EA0300C00F0C46009056
:1042200021F0004123F00045B8EB0200A94105D27E
:104230004046214690461C460B46024623F000406D
:10424000104347D0270DC7F30A00C3F30A51029069
:10425000401A019040286BDAC3F3130040F4801B2E
:104260000098924620B10023D2EB030A63EB0B0BBC
:1042700001985946C0F14002504600F07FF90646C9
:104280000D4650465946019A00F097F910EB080088
:104290006141002487EA115284EAE7731A4340D04F
:1042A000009A62B3019A012A4FEA075215DC001BFB
:1042B00061EB02014FF0004202EA0752CDE90042F1
:1042C000001C41F5801132462B4600F0CCF903B0BA
:1042D000BDE8F08F40462146F9E7001B61EB020183
:1042E000001C41F5801300185B412018A2F500174F
:1042F00047EB030140EAD570B6196D4111E06D0836
:104300004FEA360645EAC0754FEA0752001B61EBDB
:104310000201001C41F5801149084FEA30000019E4
:10432000514132462B4603B0BDE8F04F00F08CB946
:104330000098012240000023D0EB020263EBE073FF
:10434000009821464FEAE074B8EB000061EB0401ED
:10435000E9E783F000435BE781F0004158E72DE98E
:10436000FE4F81EA030404F0004421F00041009470
:104370004FF0000B23F0004350EA01045ED052EAF4
:1043800003045BD0C3F30A54C1F30A552C44A4F2CE
:10439000F3340194A0FB0254C1F3130141F48011E2
:1043A000C3F3130343F4801301FB024400FB034EE9
:1043B000840A970A44EA815447EA8357A4FB0768B2
:1043C00002958D0A05FB07854FEA932C04FB0C54DC
:1043D0002705029D4FEA065847EA1637B5EB080550
:1043E0006EEB070C870E920E47EA811742EA8312A2
:1043F000A7FB0201B6EB0B0164EB00042B0D43EAB3
:104400000C335E1844EB1C50DA465146E7FB0201C0
:10441000C5F313044FEA0B3343EA14534FEA043253
:10442000019C43EA0603A4F10C040294009CCDE92C
:1044300000B400F018F903B0BDE8F08F0020014689
:10444000F9E70EB5C10F80EAE0700844CA07002101
:1044500040F233438DE80E000A460B4600F003F9A4
:1044600003B000BD0EB540F2334102910021CDE909
:1044700000110A460B4600F0F6F803B000BD70B517
:10448000C1F30A5201F000450024C1F3130140F2C8
:10449000FF3341F480119A4201DA002070BD40F2EE
:1044A00033439A42A2F2334203DC524200F075F8E1
:1044B00000E090402C43F1D0404270BDC1F30A525D
:1044C00010B5C1F3130140F2FF3341F480119A4259
:1044D00001DA002010BD40F233439A42A2F2334287
:1044E00003DC524200F059F810BD904010BD30B5C9
:1044F0000B46014600202022012409E021FA02F5A2
:104500009D4205D303FA02F5491B04FA02F528443B
:10451000151EA2F10102F1DC30BD2DE9F05F054668
:10452000002092469B4688460646814640241BE072
:10453000284641464746224600F02FF853465A4641
:10454000C01A914110D311461846224600F016F8C1
:104550002D1A67EB01084F4622460120002100F08A
:104560000DF817EB00094E41201EA4F10104DFDC19
:10457000484631462A464346BDE8F09F202A04DBE0
:10458000203A00FA02F1002070479140C2F1200366
:1045900020FA03F3194390407047202A04DB203AA5
:1045A00021FA02F00021704721FA02F3D040C2F153
:1045B00020029140084319467047202A06DBCB179A
:1045C000203A41FA02F043EAE07306E041FA02F3CE
:1045D000D040C2F1200291400843194670470000C4
:1045E000026811441378016018467047D16004498D
:1045F00051610449116200211161114600F038B97E
:10460000E145000865480008426842B1016811F8B8
:10461000013B23B1521EC0E9001218467047012128
:10462000C160881E704742685AB1C368016843B9C7
:1046300083688B4205D0491E521CC0E9001200203D
:1046400070474FF0FF30704710B5141E73F100042F
:1046500008DA401C41F1000192185B411A4301D174
:1046600020F0010010BD2DE9F04D92469B4611B19E
:10467000B1FA81F202E0B0FA80F220329046FFF700
:104680007DFF04460F4640EA0A0041EA0B0153460B
:104690005A46084313D0114653EA010019D0C8F115
:1046A00040025046FFF779FF05460E4650465946F0
:1046B0004246FFF763FF084305D0012004E020468F
:1046C0003946BDE8F08D0020054346EAE0762C43EC
:1046D00037430A986305E40AA0EB08000022FD0AAC
:1046E00044EA47540A3002D500200146E9E70105B3
:1046F00010196941DDE9084500196941BDE8F04D2F
:10470000A2E72DE9F04D81EA030404F0004B21F00B
:10471000004514464FF0000A23F0004150EA05021C
:1047200020D054EA01021DD0C5F30A570246C5F352
:104730001303C1F31300C1F30A5640F4801543F488
:104740008013A7EB0608101BD64608F2FD3873EB62
:10475000050002D308F1010801E092185B41B8F1AD
:10476000000F03DA00200146BDE8F08D00204FF471
:104770008011064684460EE0171B73EB050705D330
:10478000121B63EB050306434CEA010C49084FEA90
:10479000300092185B4150EA0107EDD152EA030064
:1047A00012D082EA040083EA0501084305D0101BF9
:1047B000AB4106D20122002306E000224FF0004365
:1047C00002E06FF0010253101AEB06004CEB0851A7
:1047D00010EB0A0041EB0B01BDE8F04DFFF734BFD1
:1047E000C1F30A52C1F3130140F2FF3341F48011C7
:1047F0009A4202DA00200146704740F233439A425F
:10480000A2F2334202DC5242FFF7C7BEFFF7B6BE48
:1048100030B5041E71F1000404DB4FF00044404247
:1048200064EB0101141E73F1000405DB1C464FF01C
:104830000043524263EB0403994208BF904230BDEB
:10484000064C074D06E0E06840F0010394E80700DD
:1048500098471034AC42F6D3FBF74CFC5873000871
:1048600078730008C0B24FF4F05100F097B900001F
:104870002DE9F34F8BB04FF0000801F10C000C460E
:104880004FF0010B46460DF1080A019062690121C3
:104890000198904705002DD0252D2CD0216A8847FE
:1048A000C0B16269012101989047216A88470028B8
:1048B000F7D1411E62690198904700E0761CA1691A
:1048C0000B988847216A88470028F7D1E1690B983F
:1048D0008847DBE7A1690B9888470746A84201D1C2
:1048E000761CD3E7E1690B9888477F1C02D1B8F1A9
:1048F000000F6FD046E1002762693D4639460198B6
:1049000090472A2804D16269012101989047012526
:10491000DFF884926269012101989047A0F130018B
:104920000A290AD24F45E5DC07EB870100EB410776
:10493000303FDFD445F01005ECE7E90601D46FF015
:1049400000476C280AD04C2814D0682815D06A2853
:104950000DD074281CD07A281AD01DE0626901217C
:10496000019890476C2802D045F0040514E045F00A
:1049700002050DE045F020050AE062690121019879
:104980009047682802D045F0080505E045F4006529
:104990006269012101989047C4E9015765283DD01B
:1049A00019DC58287AD00CDC452837D004DC2528BF
:1049B00026D0412831D131E046282FD047282CD1AC
:1049C0002CE05B2877D0612828D063287CD064282D
:1049D00023D15AE0D0E06F2848D008DC66281DD0EB
:1049E00067281BD0692821D06E2816D127E07028AF
:1049F00045D0732868D0752847D078280DD14DE070
:104A0000A1690B988847054625283FF469AFE169FD
:104A10000B9888476D1C3FF46AAFB3E023466A46A3
:104A20006FF001000B99AFF300809EE045F040006D
:104A30006060A80723464FF0000236D43EE0E80746
:104A40007FF447AF2068011D21600068290501D56A
:104A500006701BE7290701D5068017E7A90703D5CC
:104A6000F117C0E9006111E706600FE745F040006B
:104A70006060A80723464FF0080216D41EE040F6F7
:104A80000E0125EA0100606016E045F0400060601C
:104A9000A80723464FF00A0207D40FE045F0400074
:104AA0006060A80708D5234610226FF001000B991B
:104AB000AFF3008059E007E0234610226FF00100B9
:104AC0000B99AFF3008050E04FF000094F464B4682
:104AD000632802D05B2806D040E0E80601D401201C
:104AE000A06001273AE062690121019890475E28A1
:104AF00005D14FF001096269494601989047216943
:104B000039B900210A46534643F82120491C082997
:104B1000FADBB0B3216969B9C11700EBD162531157
:104B20000AEB830122F01F02821A01200B689040D9
:104B300003430B6062690121019890475D28E8D129
:104B4000B9F1000F09D00020514651F82020D2437E
:104B500041F82020401C0828F7DB02AB22460097D2
:104B60006FF001000B99FFF7E3FA00280CDA401C04
:104B700008D1BBF1000F05D04FF0FF300DB0BDE8FC
:104B8000F08FFFE74046F9E7E90701D108F1010896
:104B900006444FF0000B79E6CCCCCC0C7F2801D931
:104BA000002208E0064A02EB5002C007127800D14A
:104BB000120902F00F0201209040084070470000E7
:104BC000FA7200080FB4054B10B503A9044A029805
:104BD00000F0F0F810BC5DF814FB0000332C000866
:104BE000580000200FB4084B10B504A902AA03987E
:104BF00000F0E0F8044602A9002000F04EFD204637
:104C000010BC5DF814FB00009B56000837B5144635
:104C10000846064B6A46214600F0A8F90446694654
:104C2000002000F03FFD20463EBD0000A5560008D4
:104C300002E008C8121F08C1002AFAD17047704765
:104C4000002001E001C1121F002AFBD170470000C3
:104C50002DE9FF5FDDE90220010DDDF838B00243E8
:104C600018D044F61050A1F2FF3141430D140F98B3
:104C7000012820D0A5EB0B00401C5FEA000A4FF092
:104C80000004474EDFF81C91A046504616D5CAF1E5
:104C9000000728E00F98012443A2012808D0002132
:104CA00000980F9BC0E90021C0E90243BDE8FF9FC7
:104CB0006FEA0B01F4E7CBF10000DEE7074612E0F4
:104CC000F80707D02246334640464946FFF747FBE0
:104CD000804689462246334610461946FFF73FFB79
:104CE00004460E467F10002FEAD1DDE90201BAF139
:104CF000000F42464B4602DAFFF731FB01E0FFF7B7
:104D000000FD04460E460022284BFFF781FD03D824
:104D10004FF0FF30014607E00022254B2046314688
:104D2000FFF776FAFFF75CFD102409E0002C0ADBA0
:104D30000A220023FFF7F1FB019B30321A55641E53
:104D400050EA0102F2D1641C019AC4F11103144427
:104D50000F9A012A03D0012208430DD10AE008432B
:104D600004D000204FF0110B0F9080E7A3EB0B0550
:104D70006D1E0DE05B4504DD4FF0000205F10105FD
:104D800004E003DA4FF00002A5F10105002AECD09F
:104D900000980F99C0E90231C0E9004586E700009C
:104DA000000024400000F03F300000000000F0430D
:104DB0000000E03F2DE9FF4F8BB09A460F460546B5
:104DC000002606E025280BD052460D9990476D1C11
:104DD000761C28780028F5D10FB03046BDE8F08F5A
:104DE0000024A0460122604900E0044315F8013F79
:104DF000203B02FA03F00842F7D128782E2817D179
:104E000015F8010F44F004042A280ED06FF02F0289
:104E10002878A0F1300109290AD808EB880102EBB3
:104E2000410100EB01086D1CF2E757F8048B6D1C83
:104E3000287869283ED006DC0028CDD063280BD026
:104E4000642804D136E0732810D075284BD0524620
:104E50000D999047761C85E017F8040B8DF800003B
:104E600000208DF80100E946012003E057F8049B7B
:104E70004FF0FF3061074FF0000401D40AE0641CDA
:104E800044450DDA8442FADB19F804100029F6D102
:104E900006E0641C8442FCDB19F804100029F8D1F8
:104EA000264404E019F8010B52460D999047641E00
:104EB000F8D257E001CF4FF00A0B002802DA404247
:104EC0002D2102E0210504D52B218DF8241001218C
:104ED00003E0E10705D02021F7E70DF12009089153
:104EE0000CE00021F9E701CF4FF00A0BF9E7594632
:104EF000FFF7FDFA01F1300209F8012D0028F6D183
:104F0000ADEB090000F1200B600701D44FF0010860
:104F1000D84502DDA8EB0B0000E00020804600240D
:104F200006E009A85246005D0D999047641C761C66
:104F300008988442F5DB04E0302052460D999047F2
:104F4000761CB8F10001A8F10108F5DC05E019F8BC
:104F5000010B52460D999047761CBBF10001ABF155
:104F6000010BF4DC6D1C34E7092801002DE9FF4F2B
:104F700095B09B468946064600250FE2252877D145
:104F800000242746F84A0121059400E0044316F85E
:104F9000013F203B01FA03F01042F7D130782A2874
:104FA00011D06FF02F033078A0F13002092A16D803
:104FB000059A44F0020402EB820203EB4202104421
:104FC000761C0590EFE759F8042B0592002A03DAC6
:104FD000504244F40054059044F00204761C3078AA
:104FE0002E2816D116F8010F44F004042A280DD0FB
:104FF0006FF02F023078A0F13003092B09D807EBAE
:10500000870302EB4303C718761CF3E759F8047BC8
:10501000761C30786C280FD006DC4C2817D0682816
:105020000DD06A2814D104E0742810D07A280FD14A
:105030000DE044F400140AE044F4801401E044F468
:1050400040147278824202D104F58014761C761CDA
:10505000307866280BD013DC582877D009DC00287C
:1050600075D04528F6D04628F4D047281AD19DE1BE
:1050700018E0632835D0642879D0652812D195E1ED
:10508000702873D008DC6728F1D069286FD06E28AB
:105090000DD06F2806D1B5E073282CD0752875D0B7
:1050A000782874D05A46179990476D1C75E1C4F35F
:1050B0000250022809D003280DD0D9F80010042886
:1050C0000DD00D6009F1040967E1D9F80010EA1765
:1050D000C1E90052F6E7D9F800100D80F2E70D7033
:1050E000F0E719F8041B8DF8001000208DF801007E
:1050F000EA46012003E059F804AB4FF0FF306107A6
:105100004FF0000102D40DE008F101018846B942D8
:105110000FDA8045F8DB1AF808100029F4D108E00E
:1051200008F1010188468142FADB1AF808100029CB
:10513000F6D105985B46A0EB080721463846179A3A
:1051400000F094FA284400EB080507E04DE029E15F
:105150000DE01AF8010B5A4617999047B8F101086B
:10516000F7D25B4621463846179A13E142E00A22FD
:105170000092C4F302524FF0000A022A08D059F8F4
:1051800004CB032A4FEAEC710AD00DE029E02AE0B3
:1051900009F1070121F00702F2E802C1914609E096
:1051A0000FFA8CFC4FEAEC71042A03D14FFA8CFC05
:1051B0004FEAEC71002907DA0A460021DCF1000C05
:1051C00061EB02012D2202E0220504D52B228DF88D
:1051D0000420012203E0E20701D02022F7E79046F5
:1051E00059E00A2102E010220DE010214FF0000AE0
:1051F00000910BE010224FF0000A44F0040408274D
:10520000009203E008224FF0000A0092C4F3025219
:10521000022A05D059F804CB0021032A08D009E05E
:1052200009F1070121F00702F2E802C1914605E009
:105230001FFA8CFC042A01D10CF0FF0C4FF000087F
:10524000220728D5702806D0009B83F0100353EA6C
:105250000A0305D00EE040228DF80420012208E068
:105260005CEA010206D030228DF804208DF805009A
:1052700002229046009B83F0080353EA0A030AD1F6
:105280005CEA010201D1620705D530228DF80420C5
:105290004FF001087F1E582804D034A003900EA8B8
:1052A00002900DE036A0F9E753466046009AFFF7FA
:1052B00034F984460398825C0298401E0290027082
:1052C0005CEA0100F0D1029806A9081A00F1200A50
:1052D000600702D524F4803400E00127574502DD41
:1052E000A7EB0A0000E0002000EB0A0100900598FF
:1052F0004144401A0590E00306D45B462146179AC4
:10530000059800F0B3F90544002706E001A85A46C5
:10531000C05D179990476D1C7F1C4745F6DBE00385
:105320000CD55B462146179A059800F09FF9054475
:1053300004E030205A46179990476D1C0099481E8A
:1053400000900029F5DC08E0029802995A4600789E
:10535000491C0291179990476D1CBAF10001AAF1FE
:10536000010AF1DC65E10000092801003031323327
:105370003435363738396162636465660000000091
:10538000303132333435363738394142434445467B
:105390000000000000F058F90544761C3078002821
:1053A0007FF4ECAD19B02846BDE8F08F620700D459
:1053B000062709F1070222F0070CFCE80223E14668
:1053C00003F000485FEA080C02D00FF2702C0DE0E9
:1053D0005FEA045C02D50FF2682C07E05FEAC47C48
:1053E00002D00FF2602C01E0AFF2700C4FF0FF38EA
:1053F00023F00043CDF850C065280CD006DC4528CA
:1054000009D046281DD047283DD13DE0662818D058
:1054100067287ED138E00021112F01DB112000E048
:10542000781CCDE9000106A90EA8FFF711FCDDE903
:105430000F010E9A03910021009207F1010A0491D5
:105440004DE04FF000400097CDE9011006A90EA8ED
:10545000FFF7FEFBDDE90F0203920E9B119900227C
:10546000DDF80CA00093049211B9791C00EB010A3D
:10547000B7EB0A0004D4C0F1FF3007F1010A049031
:10548000AAEB0700019044E0012F00DA0127002178
:10549000112F01DD112000E03846CDE9000106A9F9
:1054A0000EA8FFF7D5FBDDE90F010E9A039100214D
:1054B00004910092BA4621070CD40399514500DAB1
:1054C0008A46BAF1010F05DD009AAAF10101515C8B
:1054D000302908D0B84202DA10F1040F06DA0121AF
:1054E000CDE9011015E0AAF10101E9E7002805DC8A
:1054F000049901440491AAEB000102E0411C5145CA
:1055000000DD8A460499401A401C01904FF000408B
:105510000290200704D40198504501DBCDF80480A7
:1055200000208DF84F0002980DF14F07B0F1004FA9
:1055300025D02B200E9002984FF0020800280CDA9C
:10554000404202902D200E9007E00A210298FEF7BB
:10555000CEFF3031029007F8011DB8F10001A8F12B
:105560000108F2DC02980028EFD1791E0E9808702D
:10557000307800F0200040F0450007F8020D12A836
:10558000C01B00F107081498007800B1012000EB5F
:105590000A01019801EBE07105984144401A401E50
:1055A0000590E00306D45B462146179A059800F063
:1055B0005DF805441498007818B15A461799904739
:1055C0006D1CE00324D55B462146179A059800F030
:1055D0004DF805441CE00498002807DBDDE90301D1
:1055E000884203DD0098405C179901E0179930204C
:1055F0005A469047049805F10105401C0490019813
:10560000401E019004D12E205A46179990476D1CD8
:10561000BAF10001AAF1010ADDDC05E017F8010B7F
:105620005A46179990476D1CB8F10001A8F101087E
:10563000F4DC5B462146179A0598ABE62D00000086
:105640002B000000200000002DE9F0410446002559
:105650001E461746880404D405E039462020B0478A
:105660006D1C641EF9D52846BDE8F0812DE9F04196
:10567000044600251E469046C80301D5302700E0A9
:105680002027880404D505E041463846B0476D1C04
:10569000641EF9D52846BDE8F0810A68531C0B60EA
:1056A000107070470A68531C0B6010707047000040
:1056B00000000000000000000000000000000000EA
:1056C00000000000000000000000000000000000DA
:1056D00000000000000000000000000000000000CA
:1056E00000000000000000000000000000000000BA
:1056F00000000000000000000000000000000000AA
:105700000000000000000000000000000000000099
:105710000000000000000000000000000000000089
:105720000000000000000000000000000000000079
:105730000000000000000000000000000000000069
:105740000000000000000000000000000000000059
:105750000000000000000000000000000000000049
:105760000000000000000000000000000000000039
:105770000000000000000000000000000000000029
:105780000000000000000000000000000000000019
:105790000000000000000000000000000000000009
:1057A00000000000000000000000000000000000F9
:1057B00000000000000000000000000000000000E9
:1057C00000000000000000000000000000000000D9
:1057D00000000000000000000000000000000000C9
:1057E00000000000000000000000000000000000B9
:1057F00000000000000000000000000000000000A9
:105800000000000000000000000000000000000098
:105810000000000000000000000000000000000088
:105820000000000000000000000000000000000078
:105830000000000000000000000000101010101018
:10584000000010000000006C48480000000000004C
:105850000000001414287C287C2850500000001000
:1058600038404038487010100000002050200C7064
:1058700008140800000000000018202054483400DC
:1058800000000010101010000000000000000008D0
:105890000810101010101008080000202010101020
:1058A00010101020200000107C102828000000009C
:1058B00000000000101010FC10101000000000008C
:1058C0000000000000181030200000000000007CE4
:1058D0000000000000000000000000000030300068
:1058E00000000004040808101020204000000038C8
:1058F0004444444444443800000000301010101068
:1059000010107C00000000384404081020447C0083
:105910000000003844041804044438000000000C5F
:10592000141424447C040C000000003C20203804A3
:10593000044438000000001C2040784444443800EF
:105940000000007C44040808081010000000003823
:105950004444384444443800000000384444443C43
:1059600004087000000000000030300000303000FB
:10597000000000000018180000183020000000008F
:105980000C10608060100C000000000000007C0023
:105990007C00000000000000C02018041820C00097
:1059A00000000000182404081000300000003844F3
:1059B000444C54544C4044380000003010282828EF
:1059C0007C44EC00000000F8444478444444F8006F
:1059D0000000003C4440404040443800000000F0DB
:1059E000484444444448F000000000FC44507050D7
:1059F0004044FC000000007C202838282020700053
:105A00000000003C4440404C44443800000000EC9E
:105A100044447C444444EC000000007C101010100E
:105A200010107C000000003C08080848484830007E
:105A3000000000EC444850704844E400000000704E
:105A40002020202024247C00000000EC6C6C5454A6
:105A50004444EC00000000EC64645454544CEC00EA
:105A600000000038444444444444380000000078B6
:105A7000242424382020700000000038444444448A
:105A80004444381C000000F8444444784844E00092
:105A9000000000344C40380404645800000000FC4E
:105AA0009010101010103800000000EC44444444E2
:105AB00044443800000000EC44442828281010001A
:105AC000000000EC4444545454542800000000C426
:105AD000442810102844C400000000EC442828107A
