:020000040800F2
:1000000000040020C5040008B1040008B30400087F
:10001000B5040008B7040008B90400080000000097
:10002000000000000000000000000000BB04000809
:10003000BD04000800000000BF040008C10400085F
:1000400005050008090500080D0500081105000850
:1000500015050008190500081D0500082105000800
:1000600025050008290500082D05000831050008B0
:1000700035050008390500083D0500084105000860
:1000800045050008490500084D0500085105000810
:1000900055050008590500085D05000861050008C0
:1000A00065050008690500086D0500087105000870
:1000B00075050008790500087D0500088105000820
:1000C00085050008890500088D05000891050008D0
:1000D00095050008990500089D050008A105000880
:1000E000A5050008A9050008AD05000880B54F4822
:1000F000006850F001004D4908604D4800684D49C6
:1001000008404B490860494800684B490840474946
:1001100008604648006830F480204449086044483C
:10012000006830F4FE004249086044485FF41F0153
:10013000016000F005F842485FF00061016001BD18
:1001400080B500F001F801BD82B0002001900020D0
:1001500000903648006850F48030344908603348D5
:10016000006810F4003000900198401C0190009845
:10017000002803D10198B0F5A06FF0D12B4800689A
:10018000800302D50120009001E00020009000983B
:10019000012847D12B48006850F010002949086019
:1001A00028480068800880002649086025480068C3
:1001B00050F00200234908601D481D49096801608C
:1001C0001B481B49096801601948006850F48060A9
:1001D000174908601648006830F47C10144908601C
:1001E0001348006850F4E810114908600F4800688F
:1001F00050F080700D4908600C4800688001FBD504
:100200000B480068800880000949086008480068B9
:1002100050F00200064908600548006810F00C0024
:100220000828F9D102B07047000000000010024019
:10023000041002400000FFF8FFFFF6FE0810024025
:1002400008ED00E00020024080B500F06DF80121CB
:100250002C4800F0F8F802212A4800F0F4F80421B4
:10026000284800F0F0F80821264800F0ECF800F0EB
:100270004BF80121234800F0E3F80221214800F067
:10028000E2F804211F4800F0DEF808211D4800F0C4
:10029000DAF800F039F801211A4800F0D1F802210B
:1002A000184800F0CDF80421164800F0CCF80821D9
:1002B000144800F0C8F800F027F80121114800F0B8
:1002C000BFF802210F4800F0BBF804210D4800F0F0
:1002D000B7F808210B4800F0B6F800F015F8012136
:1002E000084800F0ADF80221064800F0A9F8042102
:1002F000044800F0A5F80821024800F0A1F800F039
:1003000003F8A4E700100140002005E0491C41F279
:1003100088329142FAD3401C4FF4FA71884201D2DC
:100320000021F4E77047000080B50121102000F0A3
:100330008DF80F20ADF8000010208DF80300032089
:100340008DF8020000A90A4800F014F801210848BD
:1003500000F076F80221064800F072F80421044803
:1003600000F06EF80821024800F06AF801BD00BFF5
:1003700000100140F0B400220026002400250023D4
:10038000002791F803C01CF00F0C624691F803C0DF
:100390005FEACC6C01D58B781A430B781B0621D011
:1003A0000368002406E0CD78482D02D10125A54040
:1003B0000561641C082C14D20125A5400E882E402E
:1003C000AE42F6D1A5000F2616FA05F7BB4312FA86
:1003D00005F52B43CD78282DE5D10125A5404561B4
:1003E000E7E703600B884FF48074A34226D3436889
:1003F000002420E0012514F10806B5400E882E40A7
:10040000AE4217D1A5000F2616FA05F7BB4312FA24
:1004100005F52B43CD78282D04D1012514F10806CC
:10042000B5404561CD78482D04D1012514F1080669
:10043000B5400561641C082CDCD34360F0BC7047F8
:1004400089B20161704789B241617047C9B2002920
:1004500005D00649096808430449086005E00349D6
:10046000096831EA0000014908607047181002402D
:1004700000F009F8002801D0C046C0460020FFF770
:10048000E3FE00F002F80120704700F001B8000020
:100490000746384600F002F8FBE7000080B5C0468A
:1004A000C046024A11001820ABBEFBE7260002003E
:1004B0007047FEE7FEE7FEE7FEE7704770477047CC
:1004C000704700000148804701480047ED000008E0
:1004D000D5040008C046C046C046C046FFF7C8FF66
:1004E000FFF7E6BFFFF7E5BFFFF7E4BFFFF7E3BFA6
:1004F000FFF7E2BFFFF7E1BFFFF7E0BFFFF7DFBFA6
:10050000FFF7DEBFFFF7FEBFFFF7FEBFFFF7FEBF3F
:10051000FFF7FEBFFFF7FEBFFFF7FEBFFFF7FEBF0F
:10052000FFF7FEBFFFF7FEBFFFF7FEBFFFF7FEBFFF
:10053000FFF7FEBFFFF7FEBFFFF7FEBFFFF7FEBFEF
:10054000FFF7FEBFFFF7FEBFFFF7FEBFFFF7FEBFDF
:10055000FFF7FEBFFFF7FEBFFFF7FEBFFFF7FEBFCF
:10056000FFF7FEBFFFF7FEBFFFF7FEBFFFF7FEBFBF
:10057000FFF7FEBFFFF7FEBFFFF7FEBFFFF7FEBFAF
:10058000FFF7FEBFFFF7FEBFFFF7FEBFFFF7FEBF9F
:10059000FFF7FEBFFFF7FEBFFFF7FEBFFFF7FEBF8F
:1005A000FFF7FEBFFFF7FEBFFFF7FEBFFFF7FEBF7F
:04000005080004D516
:00000001FF
