:020000040800F2
:10000000B81C002045020008E92E0008EB2E00086D
:10001000EF2E0008F32E0008F72E00080000000065
:10002000000000000000000000000000FB2E00089F
:10003000FD2E000800000000FF2E0008012F000820
:100040005F0200085F0200085F0200085F0200080C
:100050005F0200085F0200085F0200085F020008FC
:100060005F0200085F0200085F0200085F020008EC
:100070005F0200085F0200085F0200085F020008DC
:100080005F0200085F0200085F0200085F020008CC
:100090005F0200085F0200085F0200085F020008BC
:1000A0005F0200085F0200085F0200085F020008AC
:1000B000692B00085F0200085F0200085F02000869
:1000C0005F0200085F0200085F0200085F0200088C
:1000D0005F020008EB2800086F2A00085F02000892
:1000E0005F0200085F0200085F02000800F002F8EB
:1000F00000F098F80AA090E8000C82448344AAF12A
:100100000107DA4501D100F08DF8AFF2090EBAE827
:100110000F0013F0010F18BFFB1A43F0010318473B
:100120003454000054540000103A24BF78C878C1F9
:10013000FAD8520724BF30C830C144BF04680C60ED
:10014000704700000023002400250026103A28BF35
:1001500078C1FBD8520728BF30C148BF0B60704739
:100160006E2903F09B81702903F00C83662905F04A
:100170006D81652905F06A81672905F0678161292C
:10018000AFF3008003681B0A28BF41F08001692992
:1001900003F04881642903F04581752903F0428109
:1001A0006F2903F09782782903F0D882E92903F0B8
:1001B0002F82E42903F02C82F52903F02982EF290C
:1001C00003F09482F82903F0D7820368DB0928BF83
:1001D00041F08001632903F09E81732903F0A3811C
:1001E000E32903F02E86F32903F0338600207047BD
:1001F0001FB59DE8030004F0D7FA04F007F90400E6
:100200000020002105F00CF9401C60600020002156
:1002100005F0F0F8E06003F0DDFF1FBD10B504F05D
:1002200042F810BD04F0C5F81146FFF7E1FF02F0F7
:10023000FBFC04F089FA03B4FFF7F0FF03BC04F001
:1002400065FC00000948804709480047FEE7FEE7D3
:10025000FEE7FEE7FEE7FEE7FEE7FEE7FEE7FEE776
:1002600004480549054A064B70470000AD1F0008C9
:10027000ED000008B8160020B81C0020B8180020B7
:10028000B818002031490143314A1160704770B5F8
:10029000002100230F22C4780CB32D4C246804F4F1
:1002A000E064C4F5E064210AC1F10403CA40447863
:1002B00004FA03F18478144021430901254C06789F
:1002C000A155047804F01F050124AC4005786D1198
:1002D0004FF0E02606EB8505C5F8004109E00478FB
:1002E00004F01F050124AC401B4D0678761145F83B
:1002F000264070BD194A0A400243154B1B1F1A6065
:10030000704739B1124A121D12680243104B1B1D6F
:100310001A6006E00E4A121D126882430C4B1B1D28
:100320001A607047042808D14FF0E021096941F0B4
:1003300004014FF0E022116107E04FF0E02109696C
:1003400021F004014FF0E022116170470000FA052E
:100350000CED00E000E400E080E100E080FFFF1F22
:1003600001684FF6FE72114001600021016041609A
:100370008160C1608C49884208D18B49083949683D
:1003800041F00F01884A083A51608AE086491431E9
:10039000884208D184490839496841F0F001824A0D
:1003A000083A51607DE080492831884208D17E4971
:1003B0000839496841F470617B4A083A516070E03D
:1003C00079493C31884208D177490839496841F474
:1003D0007041754A083A516063E073495031884270
:1003E00008D171490839496841F470216E4A083AC8
:1003F000516056E06C496431884208D16A49083935
:10040000496841F47001684A083A516049E0664918
:100410007831884208D164490839496841F07061EF
:10042000614A083A51603CE06049884206D1011FA8
:10043000096841F00F01021F116032E05B4914317D
:10044000884208D15949091F096841F0F001574A0B
:10045000121F116025E055492831884208D15349BF
:10046000091F096841F47061504A121F116018E0B9
:100470004E493C31884208D14C49091F096841F472
:1004800070414A4A121F11600BE0484950318842BE
:1004900007D14649091F096841F47021434A121FD8
:1004A0001160704710B50022026847F6F0739A4356
:1004B0000C6A8B6823430C6923434C6923438C6982
:1004C0002343CC6923434C6A23438C6A23431A4356
:1004D0000260CB6843600B6883604B68C36010BDEB
:1004E0000021016041608160C16001614161816101
:1004F000C161016241628162704721B1026842F0CC
:100500000102026004E002684FF6FE731A400260C6
:1005100070471AB103680B43036002E003688B4322
:1005200003607047416070470146486880B2704779
:1005300001460020002211F0805F03D01B4B083BD6
:100540001A6802E0184B083B1A680A4201D00120E1
:1005500000E00020704710F0805F03D01349091FAE
:10056000086002E0104908394860704701460020E1
:10057000002211F0805F03D00C4B083B1A6802E0A8
:10058000094B083B1A680A4201D0012000E0002014
:10059000704710F0805F03D00449091F086002E033
:1005A00001490839486070470800024008040240C9
:1005B00010B50446CA48844208D10121042000F045
:1005C00027FB0021042000F023FB46E0C5488442BD
:1005D00008D10121082000F01BFB0021082000F0B9
:1005E00017FB3AE0C048844208D10121102000F0F6
:1005F0000FFB0021102000F00BFB2EE0BB488442D3
:1006000008D10121202000F003FB0021202000F070
:10061000FFFA22E0B648844208D10121402000F0D0
:10062000F7FA0021402000F0F3FA16E0B1488442C6
:1006300008D10121802000F0EBFA0021802000F099
:10064000E7FA0AE0AC48844207D10121801500F0A6
:10065000DFFA0021A01500F0DBFA10BD10B5012172
:10066000084600F0D5FA0021012000F0D1FA10BDB3
:100670002DE9F04102460025002600200023002439
:10068000002791F803C00CF00F0591F803C01CF08F
:10069000100F03D091F802C04CEA050591F800C094
:1006A000BCF1000F31D0146800202BE04FF0010C9A
:1006B0000CFA00F3B1F800C00CEA03069E4220D108
:1006C00083004FF00F0C0CFA03F7BC4305FA03FC50
:1006D0004CEA040491F803C0BCF1280F06D14FF096
:1006E000010C0CFA00FCC2F814C00AE091F803C037
:1006F000BCF1480F05D14FF0010C0CFA00FCC2F818
:1007000010C0401C0828D1D31460B1F800C0BCF15F
:10071000FF0F34DD546800202EE000F1080C4FF08C
:10072000010808FA0CF3B1F800C00CEA03069E4277
:1007300021D183004FF00F0C0CFA03F7BC4305FAEC
:1007400003FC4CEA040491F803C0BCF1280F05D166
:1007500000F1080C08FA0CF8C2F8148091F803C0F4
:10076000BCF1480F07D100F1080C4FF0010808FA5E
:100770000CF8C2F81080401C0828CED35460BDE8A5
:10078000F0814FF6FF710180022181700421C17058
:1007900070470246002093680B4201D0012000E020
:1007A000002070470146886880B2704702460020EA
:1007B000D3680B4201D0012000E0002070470146C1
:1007C000C86880B2704701617047416170470AB1E3
:1007D000016100E041617047C16070474FF48032B1
:1007E0000A4382618161826182698269704702463F
:1007F0000020424B18684FF68073184040EA021000
:1008000008433E4B186070473D49C8617047F0B5DA
:100810000A46002300240021002500F00046B6F11E
:10082000004F02D1354EF16901E0344E7168C0F3DA
:10083000034583B200F44016B6F5401F08D121F0FD
:1008400070612E4E766826F070662C4F7E6012E046
:1008500000F48016B6F5801F06D1032606FA05F4CB
:10086000A14341F0706106E0460D360103FA06F639
:10087000B14341F0706122B1460D360103FA06F62C
:10088000314300F00046B6F1004F02D11B4EF1613A
:1008900001E01A4E7160F0BD30B500228B071C0FCD
:1008A0000F2303FA04F2154B08338C1053F824304D
:1008B0009343124C08348D1044F8253023468C1095
:1008C00053F824308C07240F00FA04F423430B4C14
:1008D00008348D1044F8253030BD0A49086070474F
:1008E00000080140000C01400010014000140140CC
:1008F00000180140001C01400020014000000140A0
:1009000000002042DC002042DD48006840F0010089
:10091000DB49086008464068DA490840D849486021
:1009200008460068D8490840D5490860084600686C
:1009300020F4802008600846406820F4FE004860EB
:100940004FF41F0088607047CD49096821F4803159
:10095000CB4A11601146096821F480211160B0F57D
:10096000803F03D0B0F5802F0ED106E0C44909685E
:1009700041F48031C24A116007E0C149096841F47D
:10098000A021BF4A116000E000BF00BF704710B552
:1009900001460022002300204A11012A02D1B84C4E
:1009A000236806E0022A02D1B54C236A01E0B44C68
:1009B000636A01F01F02012494401C4201D001200F
:1009C00000E0002010BD38B5002000900024002574
:1009D00000BF3120FFF7DBFF05460098401C009068
:1009E0000098B0F5A06F01D0002DF2D03120FFF7B4
:1009F000CEFF08B1012400E00024204638BD0146A6
:100A000000209F4A106820F0F80040EAC100106002
:100A100070479E490860704702460020984B58680E
:100A200020F47C1042EA01031843954B586070474C
:100A300096490866704701460020914A506820F0A8
:100A400003000843506070478D48406800F00C0078
:100A50007047014600208A4A506820F0F0000843A1
:100A60005060704701460020854A506820F4E060DD
:100A700008435060704701460020814A506820F4C6
:100A8000605040EAC1005060704729B17C4A527AF8
:100A900002437B4B5A7204E0794A527A8243784B84
:100AA0005A7270477A490860704701460020744ABC
:100AB000506820F440400843506070470021754A58
:100AC00011706F4A82F82010012802D0042808D142
:100AD00003E001216F4A117004E005216D4A117095
:100AE00000E000BF00BF70476B4908607047644971
:100AF000096A0143624A11627047674944390860D4
:100B0000704730B500210022002400235C4D6D6841
:100B100005F00C0121B1042905D0082923D105E0F5
:100B20005E4D056022E05D4D05601FE0544D6D682F
:100B300005F47012524D6D6805F48034022505EB02
:100B400092421CB9564D554305600BE04C4D6D6803
:100B500015F4003F03D0524D5543056002E04F4D60
:100B60005543056002E04D4D056000BF00BF444D98
:100B70006D6805F0F00109094A4D6B5C0568DD40C0
:100B800045603F4D6D6805F4E061090A454D6B5CB9
:100B90004568DD4085603A4D6D6805F46051C90ACD
:100BA000404D6B5C4568DD40C560354D6D6805F4B2
:100BB0004041890B3C4D6B5CC568B5FBF3F50561A5
:100BC00030BD29B12E4A526902432D4B5A6104E0CF
:100BD0002B4A526982432A4B5A61704729B1284AED
:100BE00092690243264B9A6104E0254A9269824346
:100BF000234B9A61704729B1214AD2690243204BA5
:100C0000DA6104E01E4AD26982431D4BDA61704703
:100C100029B11B4AD2680243194BDA6004E0184A32
:100C2000D2688243164BDA60704729B1144A1269C0
:100C30000243134B1A6104E0114A12698243104BBC
:100C40001A61704714494039086070470F49C864F9
:100C500070470B49C87170470948406A40F080707E
:100C600007494862704701460020054A92680A42D7
:100C700001D0012000E000207047014988727047D0
:100C8000001002400000FFF8FFFFF6FE00004242A5
:100C9000D8004242201002408004424200127A00F2
:100CA00000093D00000000201000002010B504469F
:100CB000FE48844208D10121C014FFF7A9FF00219A
:100CC000E014FFF7A5FFC4E0B4F1804F08D1012183
:100CD0000846FFF7AAFF00210120FFF7A6FFB8E0B2
:100CE000F348844208D101210220FFF79EFF002132
:100CF0000220FFF79AFFACE0EE48844208D10121C0
:100D00000420FFF792FF00210420FFF78EFFA0E0F0
:100D1000E948844208D101210820FFF786FF00211D
:100D20000820FFF782FF94E0E448844208D10121C3
:100D30001020FFF77AFF00211020FFF776FF88E0F0
:100D4000DF48844208D101212020FFF76EFF0021F7
:100D50002020FFF76AFF7CE0DA48844208D10121B5
:100D60004014FFF755FF00216014FFF751FF70E0BA
:100D7000D548844209D10121C804FFF749FF002169
:100D80004FF40020FFF744FF63E0D048844209D1CC
:100D900001210805FFF73CFF00214FF48010FFF709
:100DA00037FF56E0CA48844209D101214805FFF7C0
:100DB0002FFF00214FF40010FFF72AFF49E0C5483C
:100DC000844208D101214020FFF72FFF002140205D
:100DD000FFF72BFF3DE0C048844208D1012180206D
:100DE000FFF723FF00218020FFF71FFF31E0BB4802
:100DF000844208D101218015FFF717FF0021A015BB
:100E0000FFF713FF25E0B648844209D10121080409
:100E1000FFF7FEFE00214FF48030FFF7F9FE18E0E7
:100E2000B048844209D101214804FFF7F1FE0021B6
:100E30004FF40030FFF7ECFE0BE0AB48844208D1E2
:100E400001218804FFF7E4FE00214FF48020FFF722
:100E5000DFFE10BD00220288944B98420ED0994BC1
:100E600098420BD0B0F1804F08D0914B984205D0FA
:100E7000904B984202D0904B984204D14FF68F731A
:100E80001A404B881A438D4B984207D08C4B98429E
:100E900004D04FF6FF431A40CB881A4302808B8858
:100EA00083850B880385814B98420BD0854B9842F4
:100EB00008D08B4B984205D08A4B984202D08A4B7F
:100EC000984201D10B7A038601238382704770B563
:100ED000002400220023058C4FF6FE763540058461
:100EE000028C8388048B4FF68F752C40B51E2C40E6
:100EF0000D882C43751E2A400D892A434D882A43AC
:100F00006A4DA8420BD06F4DA84208D0744DA8423C
:100F100005D0744DA84202D0734DA84213D14FF6AC
:100F2000F7752A404D892A434FF6FB752A408D8874
:100F30002A434FF6FF652B404FF6FF552B408D8916
:100F40002B43CD892B4383800483CD8885860284FF
:100F500070BD70B5002400220023058C4FF6EF769B
:100F600035400584028C8388048B48F6FF752C403D
:100F70004FF6FF452C400D884FF6FF7606EA052513
:100F80002C434FF6DF752A400D8906EA05152A43E2
:100F90004D8806EA05152A43444DA84202D0494D22
:100FA000A8421DD14FF67F752A404D894FF6FF7636
:100FB00006EA05152A434FF6BF752A408D8806EAD2
:100FC00005152A434FF6FF352B404FF2FF752B4096
:100FD0008D8906EA85052B43CD8906EA85052B43D5
:100FE00083800483CD880587028470BD70B500249A
:100FF00000220023058C4FF6FF6635400584028CE5
:101000008388848B4FF68F752C404FF6FC752C40EF
:101010000D882C434FF6FF552A400D894FF6FF7679
:1010200006EA05252A434D8806EA05252A431F4D71
:10103000A84202D0234DA8421DD14FF2FF752A408D
:101040004D894FF6FF7606EA05252A434FF6FF3510
:101050002A408D8806EA05252A434EF6FF752B4067
:101060004DF6FF752B408D8906EA05152B43CD897A
:1010700006EA05152B4383808483CD888587028407
:1010800070BD70B5002200230024058C4EF6FF765B
:1010900035400584038C8488828B48F6FF752A408E
:1010A0004FF6FF452A400D8820E00000002C01404B
:1010B0000004004000080040000C00400010004008
:1010C0000014004000340140004C01400050014039
:1010D0000054014000180040001C00400020004067
:1010E0000040014000440140004801404FF6FF76B7
:1010F00006EA05252A434DF6FF752B400D8906EAC1
:1011000005352B434D8806EA05352B43FA4DA84299
:1011100002D0FA4DA84208D14BF6FF752C408D89BC
:101120004FF6FF7606EA85152C4384808283CD88AE
:10113000A0F84050038470BD828B4FF2FF331A40F9
:101140008283828B4FF6FF7303EA01231A43828363
:101150007047F0B50C461546002200210026078C8A
:101160004EF6FF7C07EA0C070784828B018C4FF652
:10117000FF7707EA043640F6FF473A404FF6FF771D
:1011800007EA05273A434FF6FF7707EA03373A4362
:10119000D94FB8420ED0D94FB8420BD0B0F1804FE2
:1011A00008D0D74FB84205D0D64FB84202D0D64F5C
:1011B000B84206D14DF6FF77394046F4805739439F
:1011C00005E047F6FF57394044F48057394382839E
:1011D0000184F0BD828B4FF6F3731A408283828BB9
:1011E0000A4382837047F0B50C4615460022002161
:1011F0000026078C4FF6FF6C07EA0C070784828BEA
:10120000018C4FF6FF7707EA04264FF60C773A4039
:101210004FF6FF7707EA03172F433A43B64FB8421A
:101220000ED0B64FB8420BD0B0F1804F08D0B44FBB
:10123000B84205D0B34FB84202D0B34FB84206D13E
:101240004FF6FF57394046F48077394305E04FF2B7
:10125000FF57394044F48077394382830184F0BDDD
:10126000028B4FF2FF331A400283028B4FF6FF735B
:1012700003EA01231A4302837047F0B50C46154672
:10128000002200210026078C4FF6EF7C07EA0C07AE
:101290000784028B018C4FF6FF7707EA041640F6AD
:1012A000FF473A404FF6FF7707EA03373A434FF6D6
:1012B000FF7707EA05273A438F4FB8420ED08F4F8A
:1012C000B8420BD0B0F1804F08D08D4FB84205D056
:1012D0008C4FB84202D08C4FB84206D14FF6DF7720
:1012E000394046F01007394305E04FF65F77394043
:1012F00044F01007394302830184F0BD028B4FF69E
:10130000F3731A400283028B0A4302837047F0B5DD
:101310000C46154600220021068C4FF6FE773E4013
:101320000684028B018C4FF60C7632407E1C06EA56
:1013300003162E433243704EB0420ED06F4EB04271
:101340000BD0B0F1804F08D06D4EB04205D06D4E3D
:10135000B04202D06C4EB04206D14FF6FD7631401D
:1013600044F00106314305E04FF6F576314044F094
:101370000106314302830184F0BD70B505460C4679
:101380005D4885420ED05D4885420BD0B5F1804F57
:1013900008D05B48854205D05A48854202D05A4859
:1013A000854200D100E000BF208850B92389A2887F
:1013B00061882846FFF7ABFFE1882846FFF79EFFCC
:1013C00025E0208804280AD12389A288618828463C
:1013D000FFF753FFE1882846FFF742FF17E0208818
:1013E00008280AD12389A28861882846FFF7FBFED6
:1013F000E1882846FFF7EEFE09E02389A28861888C
:101400002846FFF7A6FEE1882846FFF795FE70BD47
:101410002DE9F04105460C4600260127608808B9F1
:10142000022600E00026A088012801D1022700E062
:1014300001272088A0B92389A28861882846FFF760
:1014400066FFE1882846FFF759FF23893A4631466F
:101450002846FFF712FFE1882846FFF701FF13E057
:101460002389A28861882846FFF707FFE18828467C
:10147000FFF7F6FE23893A4631462846FFF747FF35
:10148000E1882846FFF73AFFBDE8F0810A884B88DB
:101490001A438B881A43CB881A430B891A434B890A
:1014A0001A438B891A43A0F8442070474FF6FF7106
:1014B000818000210180C18041800172704700213C
:1014C000018041808180C180018141818181C18110
:1014D0007047002101804180012181800021C1806D
:1014E000018170470021018041808180C18001819C
:1014F0004181818170470000002C0140003401408F
:101500000004004000080040000C004021B10288A7
:1015100042F00102028004E002884FF6FE731A4096
:101520000280704731B1B0F8442042F40042A0F884
:10153000442005E0B0F84420C2F30E02A0F8442095
:1015400070471AB183890B43838102E083898B43FF
:10155000838170478182704741EA0203A0F84830D6
:1015600070471AB183890B43838102E083898B43DF
:101570008381704701894FF6F872114001817047ED
:101580000A46002101894FF68F73194011430181EA
:10159000704730B504460D4629462046FFF7F0FF58
:1015A000208940F00700208130BD2DE9F04104463C
:1015B0000D4616461F46602D06D13B460122314698
:1015C0002046FFF75AFE05E03B4601223146204601
:1015D000FFF79DFE29462046FFF7D2FF208940F005
:1015E00007002081BDE8F08130B50C46002101895B
:1015F000C9B24FF6FF7505EA032515432543294374
:10160000018130BD2DE9F04105460E46174698464A
:10161000002443463A4631462846FFF7E5FF2C8929
:101620004FF6F870044044F007044FF68F70044002
:1016300044F070042C81BDE8F081F0B504460D46FD
:1016400016461F463B46324629462046FFF7CCFF4A
:10165000208940F480402081F0BD0185828270475E
:101660000A46002101884FF68F731940114301800B
:101670007047F0B50C4615461E4600210022002397
:101680000189028B038C4FF6F877394021434FF6DE
:10169000FC473A4040F201173A434FF6DD773B40B2
:1016A0004FF6FF7707EA06172F433B43018102837A
:1016B0000384F0BD0A460021018B4FF68F73194059
:1016C0001143018370470A460021018B48F6FF73DE
:1016D00019404FF6FF7303EA022319430183704751
:1016E0000A460021818B4FF68F7319401143818385
:1016F00070470A460021818B48F6FF7319404FF668
:10170000FF7303EA022319438183704721B10288E2
:1017100042F08002028004E002884FF67F731A4094
:101720000280704721B1828842F00402828004E086
:1017300082884FF6FB731A408280704721B18288FD
:1017400042F00802828004E082884FF6F7731A4064
:101750008280704721B1828842F00102828004E0D9
:1017600082884FF6FE731A40828070470A46002135
:10177000018B4FF6F77319401143018370470A46F6
:101780000021018B4FF2FF7319404FF6FF7303EAFC
:1017900002231943018370470A460021818B4FF6CB
:1017A000F77319401143818370470A460021818BEA
:1017B0004FF2FF7319404FF6FF7303EA02231943F8
:1017C000818370470A460021018B4FF6FB73194055
:1017D0001143018370470A460021018B4FF6FF3306
:1017E00019404FF6FF7303EA022319430183704740
:1017F0000A460021818B4FF6FB7319401143818308
:1018000070470A460021818B4FF6FF3319404FF68F
:10181000FF7303EA02231943818370470A460021BC
:10182000018B4FF67F7319401143018370470A46BD
:101830000021018BC1F30E014FF6FF7303EA02236F
:101840001943018370470A460021818B4FF67F734D
:1018500019401143818370470A460021818BC1F3EF
:101860000E014FF6FF7303EA022319438183704789
:101870000A460021018C4FF6FD7319401143018483
:1018800070470A460021018C4FF6F7731940114347
:10189000018470470A460021018C4FF6DF7319401E
:1018A0004FF6FF7303EA02131943018470470A4697
:1018B0000021018C4FF67F7319404FF6FF7303EA46
:1018C00002131943018470470A460021018C4FF628
:1018D000FF5319404FF6FF7303EA022319430184B3
:1018E00070470A460021018C4FF2FF7319404FF6F2
:1018F000FF7303EA02231943018470470A4600215B
:10190000018C4DF6FF7319404FF6FF7303EA023363
:1019100019430184704730B5002301248C40A3B2E1
:10192000048C9C430484048C02FA01F5ADB22C4370
:10193000048430BD30B5002304248C40A3B2048C51
:101940009C430484048C02FA01F5ADB22C43048458
:1019500030BD70B50346002000241846183001251C
:101960008D40ACB21D8CA5431D8409B1082909D155
:1019700000EB6100056825F07005056005681543FA
:1019800005600EE00D1FC5F34E052844056825F4DB
:10199000E045056005684FF6FF7606EA0226354306
:1019A000056070BD21B1028842F00202028004E0AD
:1019B00002884FF6FD731A400280704721B10288F9
:1019C00042F00402028004E002884FF6FB731A40E2
:1019D0000280704721B1828842F08002828004E058
:1019E00082884FF67F731A408280704702884FF6D4
:1019F000F7731A40028002880A4302807047828887
:101A00004FF68F731A40828082880A438280704723
:101A100002894FF6F8731A40028102890A43028153
:101A2000704702894FF67F731A40028102890A4388
:101A30000281704781847047818570478186704735
:101A40000187704781877047A0F84010704702886F
:101A50004FF6FF431A40028002880A430280704713
:101A60000146888E70470146088F70470146888F6F
:101A700070470146B1F8400070470146888C7047B6
:101A80000146088D704702460020138A0B4201D0A0
:101A9000012000E000207047CA430282704730B541
:101AA0000246002000230024158A05EA01039589D7
:101AB00005EA010413B10CB1012000E0002030BDA3
:101AC000CA4302827047000010B50446FB488442B6
:101AD00009D101218803FFF79BF800214FF48040D2
:101AE000FFF796F832E0F648844209D10121480414
:101AF000FFF79BF800214FF40030FFF796F825E040
:101B0000F048844209D101218804FFF78EF80021B2
:101B10004FF48020FFF789F818E0EB48844209D1A0
:101B20000121C804FFF781F800214FF40020FFF7DE
:101B30007CF80BE0E548844208D101210805FFF755
:101B400074F800214FF48010FFF76FF810BD2DE9F5
:101B5000F04786B005460E460024A24600BFA146C7
:101B60000027B08900B100BF2F462C8A4CF6FF70C9
:101B70000440F08804432C82AC894EF6F3100440F4
:101B8000B08831890843718908430443AC81AC8A29
:101B90004FF6FF400440B0890443AC8201A8FEF731
:101BA000B0FFC648874202D1DDF810A001E0DDF8A1
:101BB0000CA0A88910F4004F08D00AEBCA0000EB73
:101BC0000A1031684900B0FBF1F807E00AEBCA00DF
:101BD00000EB0A1031688900B0FBF1F86420B8FB13
:101BE000F0F004012009642101FB1089A88910F498
:101BF000004F08D0322000EBC900B0FBF1F000F03C
:101C00000700044308E0322000EB09106421B0FB18
:101C1000F1F000F00F0004432C8106B0BDE8F0871E
:101C20004FF41651016000218180C18001810C2197
:101C3000418100218181704710B502460020108A41
:101C40004FF2FF0318400B884C8823438C882343B2
:101C5000CC8823431843108210BD002101804180AD
:101C60008180C180704721B1828942F40052828113
:101C700004E082894DF6FF731A4082817047F0B507
:101C800003460024002600250020A1F510676A3FC6
:101C900000D100BF1846C1F3421401F01F0601270E
:101CA00007FA06F5012C01D10C3004E0022C01D119
:101CB000103000E014301AB107682F43076002E0CB
:101CC0000768AF430760F0BD1AB1838A0B43838274
:101CD00002E0838A8B4383827047028A4FF6F07357
:101CE0001A400282028A0A430282704782894FF2B6
:101CF000FF731A40828182890A438281704721B131
:101D0000828942F00202828104E082894FF6FD73EB
:101D10001A4082817047028A4FF6DF731A400282AE
:101D2000028A0A430282704721B1028A42F4804249
:101D3000028204E0028A4BF6FF731A400282704767
:101D4000C1F308028280704701468888C0F308000A
:101D50007047818941F0010181817047028BD2B2C5
:101D60000283028B42EA012202837047028B02F453
:101D70007F420283028B0A430283704721B1828A29
:101D800042F02002828204E0828A4FF6DF731A401A
:101D90008282704721B1828A42F01002828204E07E
:101DA000828A4FF6EF731A408282704721B1828A8D
:101DB00042F00802828204E0828A4FF6F7731A40EA
:101DC0008282704721B1828942F40042828103E01D
:101DD0008289C2F30E028281704721B1828A42F465
:101DE0000062828204E0828A4FF2FF731A4082828C
:101DF0007047828A4FF6FB731A408282828A0A43B6
:101E00008282704721B1828A42F00202828204E01B
:101E1000828A4FF6FD731A40828270470246002084
:101E2000B1F5007F00D100BF13880B4201D0012023
:101E300000E00020704701F40072B2F5007F00D18D
:101E400000BFCA430280704770B5024600240023D9
:101E500000250020A1F510666A3E00D100BFC1F345
:101E6000421501F01F03012606FA03F3012D02D1EA
:101E70009689334006E0022D02D1168A334001E0F4
:101E8000968A33400C12012606FA04F41688344070
:101E900013B10CB1012000E0002070BD10B500228C
:101EA0000023A1F510646A3C00D100BF0A1201248E
:101EB0009440A3B2DC43048010BD00000038014010
:101EC0000044004000480040004C004000500040EA
:101ED0000CB50020019000906B48006840F4803001
:101EE0006949086000BF6848006800F4003000904D
:101EF0000198401C0190009818B90198B0F5A06FA6
:101F0000F1D16148006810F4003F02D00120009038
:101F100001E0002000900098012842D15B48006851
:101F200040F01000594908600846006820F003009E
:101F300008600846006840F00200086052484068A7
:101F4000514948600846406848600846406840F487
:101F5000806048600846406820F47C10486008466D
:101F6000406840F4E81048600846006840F080701F
:101F7000086000BF4448006810F0007FFAD0424873
:101F8000406820F00300404948600846406840F03F
:101F90000200486000BF3C48406800F00C00082880
:101FA000F9D10CBD10B5FFF793FF10BD10B5364841
:101FB000006840F001003449086008464068344930
:101FC00008403149486008460068324908402E49B7
:101FD00008600846006820F48020086008464068D1
:101FE00020F4FE0048604FF41F008860FFF7DAFF1E
:101FF0004FF000602849086010BD10B50021002096
:102000000022214B5B6803F00C0121B1042906D0AA
:10201000082928D107E0214B214C236027E01F4BE2
:102020001F4C236023E0184B5B6803F47010164BC1
:102030005B6803F48032022303EB904022B9194B12
:102040004343174C23600DE00F4B5B6813F4003FD4
:1020500004D0144B4343124C236003E00F4B434323
:102060000F4C236003E00D4B0D4C236000BF00BFFD
:10207000054B5B68C3F303130B4CE15C084B1B6817
:10208000CB40074C236010BD0010024000200240EE
:102090000000FFF8FFFFF6FE08ED00E000127A00F6
:1020A0001400002000093D001800002008B501219F
:1020B0001820FEF793FD4FF40050ADF800001020FB
:1020C0008DF8030003208DF8020069461D48FEF7D5
:1020D000CFFA0120ADF8000010208DF80300032096
:1020E0008DF8020069461848FEF7C2FA0220ADF8E2
:1020F000000010208DF8030003208DF802006946CF
:102100001148FEF7B5FA08BD012806D10D49C96886
:1021100081F400510B4AD16012E0022808D10A492B
:102120000C31096881F00101074A0C32116007E0A7
:1021300005490C31096881F00201034A0C32116033
:102140007047000000100140000C0140F0B58BB05A
:1021500007460C4615461E4601210846FEF731FD8E
:102160003846FEF7FDF80094019510200290039682
:102170000020049080200590002006900790089091
:102180004FF48050099000200A9069463846FEF7C7
:1021900089F90BB0F0BD70B504460D46002120460C
:1021A000FEF7ABF929462046FEF7BCF9012120468F
:1021B000FEF7A3F970BD000070B506460C46002579
:1021C0000020F64908804FF48061F54801F0C9F815
:1021D0003146F4A000F058FC00BF0AE0F3A1F0483B
:1021E00001F049F800B106E0642000F006FD681C2B
:1021F00085B2A542F2DB00BFA54201DB012070BD24
:102200000020FCE72DE9F04180460E460027002023
:10221000E24908804FF48061E14801F0A2F8E5A0AE
:1022200000F032FC00BF0AE0E0A1DD4801F023F835
:1022300000B106E0642000F0E0FC781C87B2B742F1
:10224000F2DB00BFB74202DB0120BDE8F081DCA178
:10225000D34801F010F804469CB1D9A1601C01F0EC
:102260000AF805465DB1281B421E611C404601F07C
:1022700033F84146D3A000F061FE0020E5E70320DB
:10228000E3E70220E1E72DE9F04106460F46144658
:1022900000250020C14908804FF48061C04801F04A
:1022A00060F83A463146CDA000F0EEFB00BF0AE0F0
:1022B000D0A1BB4800F0DFFF00B106E0642000F0D1
:1022C0009CFC681C85B2A542F2DB00BFA54202DB84
:1022D0000120BDE8F0810020FBE770B50446002036
:1022E000AE4908804FF48061AD4801F03AF8CAA0C9
:1022F00000F0CAFB00250AE0CAA1A94800F0BBFF14
:1023000000B106E0642000F078FC681C85B2A542AC
:10231000F2DB00BFA54201DB012070BD0020FCE71D
:1023200010B53220FFF7D9FF08B1012010BDBFA0C2
:1023300000F004FE3221C2A0FFF73EFF08B10220E8
:10234000F4E7C2A000F0FAFDC7A000F0F7FDC82234
:10235000CCA1CFA0FFF797FF08B10320E6E7CEA0FE
:1023600000F0ECFD3221D148FFF74CFF08B104200A
:10237000DCE7CFA000F0E2FD3221D3A0FFF71CFF85
:1023800008B10520D2E7D4A000F0D8FD3221D8A0B2
:10239000FFF712FF08B10620C8E7D8A000F0CEFD75
:1023A0003221DDA0FFF708FF08B10720BEE70020BB
:1023B000BCE700B587B0002004900590069001901E
:1023C00002900390D9A1764800F055FFA0B101AB6F
:1023D00004AAD8A1724800F0C3FE04A9D8A000F056
:1023E000ADFD00206D4908804FF480616C4800F01D
:1023F000B8FF012007B000BDD7A1694800F03BFF3E
:1024000098B101AB04AACBA1654800F0A9FE04A9CC
:10241000D3A000F093FD0020604908804FF4806154
:102420005F4800F09EFF0220E4E70020E2E72DE98C
:10243000FF4107460D46164600200190029003908A
:10244000CDA1574800F017FF00B3052000F0D5FBE1
:10245000334601AACAA15248009500F081FECDA1E1
:102460004F4800F008FF044624B1621CCAA1384658
:1024700000F070FD0020494908804FF48061484811
:1024800000F06FFF012004B0BDE8F0810020FAE702
:102490002DE9F0470746884691461D460024002056
:1024A0003E4908804FF480613D4800F05AFF4A469B
:1024B0003946BAA000F0E8FA00BF0AE0BCA13848EB
:1024C00000F0D9FE00B106E0642000F096FB601C2D
:1024D00084B2AC42F2DB00BFAC4202DB0120BDE8BB
:1024E000F08700202D4908804FF480612C4800F0CF
:1024F00038FF002606E018F80610AEA000F0C4FA77
:10250000701C86B24E45F6DB002421E0AAA12448C7
:1025100000F0B1FE40B10020204908804FF48061F6
:102520001F4800F01EFF15E0A5A11D4800F0A3FE06
:1025300048B10020194908804FF48061184800F024
:1025400010FF0220CBE7642000F057FB601C84B230
:10255000AC42DBDB00BFAC4201DB0320BFE7002065
:10256000BDE710B50246012906D0022908D003298B
:1025700013D0042903D142E11378303B98B25BE1D8
:102580001378303B03EB83034FF6FF7404EA4300F8
:102590005378303B034498B24EE11BE12A000020FF
:1025A0005C05002025730D0A000000000D0A4F4B4A
:1025B0000D0A000041542B43494653520D0A0000B6
:1025C0002200000045535038323636B5C44950B564
:1025D000D8D6B7A3BA25730D0A00000041542B4387
:1025E000574A41503D222573222C222573220D0A81
:1025F000000000005749464920434F4E4E45435482
:1026000045440D0A5749464920474F542049500D2B
:102610000A0D0A4F4B0D0A0041542B5253540D0A18
:102620000000000072656164790000004553503875
:10263000323636C8EDB8B4CEBBB3C9B9A60D0A0060
:1026400041542B43574D4F44453D3100455350387D
:10265000323636C9E8D6C3535441C4A3CABDB3C940
:10266000B9A60D0A0000000045535038323636C175
:10267000ACBDD34150D6D02E2E2E202E2E2E0D0A9C
:1026800000000000616C7469756D3B3230313800B8
:1026900059442D776966690045535038323636C142
:1026A000ACBDD34150B3C9B9A60D0A0048040020FF
:1026B00045535038323636B2E9D1AF4950B5D8D645
:1026C000B7B3C9B9A60D0A0041542B4349504D4F29
:1026D00044453D300000000045535038323636B98D
:1026E000D8B1D5CDB8B4ABB3C9B9A60D0A000000B6
:1026F00041542B4349504D55583D310045535038B6
:10270000323636BFAAC6F4B6E0C2B7C1ACBDD3B349
:10271000C9B9A60D0A00000041542B434950534546
:10272000525645523D312C3530353000434F4E4ED8
:1027300045435400255B5E2C5D2C255B5E2C5D00C3
:10274000D3D0BFCDBBA7B6CBBDD3C8EBA3AC494458
:102750003D25730D0A000000434C4F5345440000D3
:10276000D3D0BFCDBBA7B6CBB6CFBFAAA3AC49448D
:102770003D25730D0A0000002B4950440000000065
:10278000255B5E2C5D2C255B5E2C5D2C255B5E3A0B
:102790005D0000003A0000002573000041542B4307
:1027A000495053454E443D25642C25640D0A0000D4
:1027B0003E0000002563000053454E44204F4B006F
:1027C0006C696E6B206973206E6F742076616C6922
:1027D000640000001378303B03EBC30404EB0313E5
:1027E0004FF6FF7404EA83009378303B03EB8303D6
:1027F00000EB4300D378303B034498B21CE01378DD
:10280000303B03EB4304C4EBC3134FF6FF7404EAFD
:10281000C3005378303B03EBC30404EB031300EB1A
:1028200083009378303B03EB830300EB4300D378C2
:10283000303B034498B200BF00BF10BD08B54FF451
:10284000E060FDF71FFD25208DF8000003208DF8C6
:1028500001008DF8020001208DF803006846FDF7A5
:1028600016FD08BD10B586B00446012144F20400EF
:10287000FEF7B4F94348FFF727F94FF40070ADF8BD
:10288000140003208DF8160018208DF8170005A9F4
:102890003D48FDF7EDFE4FF48060ADF814000420D4
:1028A0008DF8170005A93848FDF7E2FE01940020D5
:1028B000ADF80800ADF80A00ADF80C00ADF8100056
:1028C0000C20ADF80E0001A92E48FFF740F90122B7
:1028D00040F225512B48FFF7D2F901212948FFF793
:1028E000C2F9FFF7ABFF06B010BD10B540F225519D
:1028F0002448FFF7A9FA10B32248FFF725FAC4B21B
:102900002248008810F4004F2BD12048008810F492
:10291000804F0CD00A2C03D000201C49088020E0F6
:102920001A48008840F400401849088019E00D2C2E
:1029300006D11648008840F480401449088010E011
:1029400012480088C0F30D0011490C540F4800884C
:10295000401C0E49088008460088FF2801DD002041
:10296000088010BD70B504460D46E1B20548FFF77A
:10297000E7F900BF40210348FFF750FA0028F9D0DB
:10298000204670BD003801400008014028000020AA
:102990005C04002008B54FF4E060FDF773FC2620CE
:1029A0008DF8000002208DF801008DF80200012052
:1029B0008DF803006846FDF76AFC08BD10B586B0C7
:1029C000044601210420FEF709F901214804FEF71D
:1029D00012F93B48FFF778F80420ADF81400032003
:1029E0008DF8160018208DF8170005A93548FDF759
:1029F0003FFE0820ADF8140004208DF8170005A94B
:102A00003048FDF735FE01940020ADF80800ADF820
:102A10000A00ADF80C00ADF810000C20ADF80E0067
:102A200001A92748FFF793F801212548FFF71BF973
:102A3000012280212248FFF747F94FF48063224AA0
:102A40001F49091D2148FFF781FB012240F2255152
:102A50001B48FFF714F941F61F41632000F051F8BD
:102A6000FFF798FF00201A49088006B010BD1448EF
:102A7000001D00881749164A128888541448008897
:102A8000401C1349088070470FB438B505A8009062
:102A90000D48009A049900F03FFA002000900A487F
:102AA00000F0FBFB84B221460848FFF774FB00BF2F
:102AB000094800680028FBD138BC5DF814FB000011
:102AC00000440040000801405C09002080000240F2
:102AD0002A0000205C0500208400024008B54FF465
:102AE000E060FDF7CFFB1C208DF8000001208DF881
:102AF00001008DF802008DF803006846FDF7C7FB62
:102B000008BD3EB505460C4601210220FEF773F8CC
:102B10004FF08040FEF7CAF84FF08040FEF72AFDE4
:102B2000ADF80450ADF800400020ADF80600ADF857
:102B3000020069464FF08040FEF78CF901218807BA
:102B4000FEF7AAFF00214FF08040FEF7DFFD0122D3
:102B500011469007FEF7F5FC00214FF08040FEF78C
:102B6000D5FCFFF7BBFF3EBD10B50748008840F419
:102B700000400549088000210448FEF7C7FC0121F8
:102B80000248FEF79DFF10BD2A000020000400400F
:102B900030B500BF1F4800681F4AB0FBF2F1B1F129
:102BA000807F01D301201DE021F07F40401E4FF0C7
:102BB000E022506150170F22002807DA13071D0E7C
:102BC000164B00F00F04241F1D5503E013071C0EC5
:102BD000134B1C5400BF00204FF0E02290610720EF
:102BE000106100200028D5D130BD0E49088000BFFB
:102BF0000C4909880029FBD1704700B5024603E063
:102C00004FF47A70FFF7F1FF1000A2F101018AB2D0
:102C1000F6D100BD1400002040420F0018ED00E086
:102C200000E400E03A000020FFF740FAFFF7B0FFB1
:102C300040F2DC50FFF7E1FF4FF41650FFF712FEB1
:102C40004FF4E130FFF7BAFE43A000F077F9FFF749
:102C500067FB0446082C2CD2DFE804F004080D12B0
:102C6000171C212644A000F069F922E049A000F0D9
:102C700065F900F063F850A000F060F900F05EF82C
:102C800057A000F05BF900F059F85EA000F056F98B
:102C900000F054F864A000F051F900F04FF86BA078
:102CA00000F04CF900F04AF872A000F047F900F08B
:102CB00045F800BF00207A4908804FF480617948C8
:102CC00000F04FFB39E0FFF774FB774A774978480B
:102CD000FFF7ADFB002830D0744A734975A000F0AF
:102CE0002DF973497AA000F029F97C48006800F0BA
:102CF000D4FA85B26C4800F0D0FA87B239466A48F7
:102D0000FFF72FFCC6B232232A46744801683046CA
:102D1000FFF7BEFB664800F0C0FA85B2624800F0DB
:102D2000BCFA87B239466048FFF71BFCC6B23223B3
:102D30002A465F493046FFF7ABFBC4E768480068A6
:102D400000F4E06067490843001D65490860BFF36F
:102D5000408F00BFFEE700000D0A45535038323661
:102D600036D7BCB1B8C9E8D6C3544350B7FECEF18C
:102D7000C6F7210D0A00000045535038323636C9D7
:102D8000E8D6C3544350B7FECEF1C6F7B3C9B9A6CF
:102D9000210D0A0045535038323636C8EDBCFEB816
:102DA000B4CEBBCAA7B0DC2120D7BCB1B8D6D8C638
:102DB000F4CFB5CDB30D0A0045535038323636C97D
:102DC000E8D6C3535441C4A3CABDCAA7B0DC21206E
:102DD000D7BCB1B8D6D8C6F4CFB5CDB30D0A000074
:102DE00045535038323636C1ACBDD34150CAA7B076
:102DF000DC212CD7BCB1B8D6D8C6F4CFB5CDB30D35
:102E00000A00000045535038323636B5C44950BB2D
:102E1000F1C8A1CAA7B0DC212CD7BCB1B8D6D8C69E
:102E2000F4CFB5CDB30D0A0045535038323636B91C
:102E3000D8B1D5CDB8B4ABCAA7B0DC212CD7BCB1C2
:102E4000B8D6D8C6F4CFB5CDB30D0A004553503827
:102E5000323636BFAAC6F4B6E0C2B7C1ACBDD3CADB
:102E6000A7B0DC212CD7BCB1B8D6D8C6F4CFB5CD2D
:102E7000B30D0A0045535038323636BFAAC6F4C9DE
:102E8000E8C1A2B7FECEF1C6F7CAA7B0DC212CD7A5
:102E9000BCB1B8D6D8C6F4CFB5CDB30D0A0000008A
:102EA0002A0000205C0500203500002030000020B2
:102EB0005C0D0020C1ACBDD369643A2573D3D02525
:102EC00073D7D6BDDACAFDBEDDB5BDC0B40D0A00EC
:102ED000CAFDBEDD3A25730D0A0000002C0000205B
:102EE0000CED00E00000FA05704700BFFEE700BFF0
:102EF000FEE700BFFEE700BFFEE770477047704780
:102F00000448008820B103480088401E0149088019
:102F1000704700003A0000201CB50C46064B7B446D
:102F200069460090204600F0D4FA04460020694625
:102F300000F0E2FA20461CBDD70500000FB404499A
:102F400010B503AA029800F0F3FA10BC5DF814FB68
:102F5000B01500200FB41CB5084B06AA7B44694687
:102F60000090059800F0B5FA04460020694600F08C
:102F7000C3FA20461CBC5DF814FB00009905000054
:102F800070B50C460546012A05D02878800600D584
:102F9000EA69002302E0012305E05B1C934202D2B0
:102FA000E05C0028F9D1A869E618C01AA861286A6F
:102FB00018442862284600F0F9F904E0D5E9012117
:102FC00014F8010B9047B442F8D3284600F005FAF4
:102FD00070BD00002DE9F05F894604464FF0000AFD
:102FE000DFF878B1FB44C0F820A02046E1688847AC
:102FF000002875D0252806D0D4E901219047206A01
:10300000401C2062F1E700265F462046E1688847C1
:103010002028054608DB312D06D207EB050010F805
:10302000200C08B10643F0E7B00701D526F00406EE
:10303000C4F81CA00027C4F818A02A2D09D02846DF
:1030400002F0D1F938B304EB8708303DC8F81850C6
:1030500019E059F8041B204604EB87029161E168EE
:103060008847012F054618D1E069002820DA26F0AC
:1030700020061DE0D8F8180000EB800005EB4000AA
:103080003038C8F818002046E1688847054602F045
:10309000AAF90028EED1012F0AD02E2D08D1204602
:1030A000E16888477F1C0546022F46F02006C4DBF6
:1030B000A069002803DA404246F00106A061F0074B
:1030C00001D026F010066C2D0BD0682D09D04C2DA8
:1030D00039D06A2D35D0742D35D07A2D33D016E005
:1030E00038E0E1682F4620468847B842054609D1B6
:1030F0006C2F26D04FF48060E16806432046884755
:10310000054604E06C2F1AD04FF4807006430DB3CF
:10311000A5F14100192802D8203546F400664A4638
:103120002946204626604E46FDF71AF880B1012850
:103130000BD0F61D26F0070000F1080955E74020E6
:10314000E4E78020D8E70020D6E706F104094CE741
:10315000284651E7206ABDE8F09F0000682400007F
:103160000FB400B58DB010A9099000910B904FF0ED
:10317000FF300A9000200C900648784406900648DC
:1031800078446A4607900F9909A800F00DFB0DB02E
:103190005DF814FB4B060000630600002DE9FF5F9D
:1031A0004FF000089946144646469169D2E901A7B6
:1031B000DDF838B001988847054659EA0B0005D07C
:1031C00009E0A1690198761C88470546216A2846CE
:1031D00088470028F5D1681C03D05FEACA7005D083
:1031E00015E04FF0FF3004B0BDE8F09F2068011DEE
:1031F0002160D0F800800AE05FEACA7001D108F8C7
:10320000015BA1697F1E0198761C88470546002F47
:103210001ADD681C18D0B9F1000F0DD0E81705EBC6
:10322000D060421120F01F0059F822102A1A012004
:1032300090400142E0D107E0BBF1000FDCD128460D
:10324000216A88470028D7D0E169019888470AF0A9
:10325000010050EA0B0002D1002188F80010A0689C
:10326000B84203DDBBF1000F03D017B16FF00100CE
:10327000B9E73046B7E730B505460B462A4613F89E
:10328000014B12F8010B08B1A042F8D01CB1002884
:1032900002D06D1CF1E7284630BD10B5431C02E09A
:1032A00010F8011B71B18107FAD14FF0013202C849
:1032B0008C1A8C4314EAC211F9D0C01A0A0603D042
:1032C000C01E10BDC01A10BD0A0401D0801E10BD62
:1032D0000902FCD0401E10BD032A40F2308010F0DD
:1032E000030C00F0158011F8013BBCF1020F6244A1
:1032F00098BF11F801CB00F8013B38BF11F8013B32
:10330000A2F1040298BF00F801CB38BF00F8013BDE
:1033100011F0030300F07882083AC0F0088051F8F9
:10332000043B083A51F804CBA0E80810F5E7121D59
:103330005CBF51F8043B40F8043BAFF30080D20778
:1033400024BF11F8013B11F801CB48BF11F8012B44
:1033500024BF00F8013B00F801CB48BF00F8012B67
:1033600070474FF000020429C0F0128010F0030CE7
:1033700000F07E82CCF1040CBCF1020F18BF00F803
:10338000012BA8BF20F8022BA1EB0C0100F070BAB2
:103390005FEAC17C24BF00F8012B00F8012B48BF75
:1033A00000F8012B704770477047704770B50446AE
:1033B00085690068C10601D5302600E02026C007D7
:1033C00008D070BDD4E9012130469047206A00F151
:1033D000010020626D1EF5D570BD70B5044685698B
:1033E0000078C00708D170BDD4E9012120209047A2
:1033F000206A00F1010020626D1EF5D570BD0968DC
:103400004A0501D540B27047C905FCD500B27047E6
:1034100009684A0501D5C0B27047C905FCD580B21C
:10342000704700002DE9F041064600241068752918
:10343000314616A511D0FFF7E2FF002803DAC0F1EC
:10344000000013A507E031688A0701D511A502E045
:10345000490704D510A5012401E0FFF7D9FF002199
:103460000A2306F1240707E0B0FBF3F203FB120086
:10347000303078541046491C0028F5D123462A469E
:103480003046BDE8F04100F066BA000000000000E0
:103490002D0000002B0000002000000011680268D1
:1034A000006A530501D508700BE0D30501D50880EB
:1034B00007E0130603D5C217C1E9000201E0520676
:1034C000086001207047000001694A1C0261087809
:1034D000704700B58FB0CDE9013100210591054954
:1034E0007944CDE9031011466846FFF773FD0FB02C
:1034F00000BD0000E5FFFFFF0A6802F8010B0A604B
:10350000704710B5436913B1AFF3008001E0FFF7D6
:1035100037FD012010BD127800F124010A7000224D
:103520004A700122EDE711684FF0FF32E9E7000031
:10353000074B70B50D467B44FFF7CBFF044628468A
:1035400000F044FE10B14FF0FF3070BD204670BD5A
:103550002BF4FFFF2DE9FF5F15468A460446DFF88E
:10356000AC80F8440027D8E900103E46CDE90010B1
:1035700011E03AF816106A4602A800F0C7FE411C96
:1035800007D02178890603D5E269391891420ED80F
:10359000074406F101062078800602D5E069B842AA
:1035A00005DDAE42E5DB3AF816000028E1D1A0695E
:1035B000C01BA0612046FFF7F9FED8E90010CDE955
:1035C0000010002016E03AF818106A4602A800F031
:1035D0009DFE8146401C0BD000250DF1080B05E037
:1035E000D4E901211BF8050090476D1C4D45F7D328
:1035F00008F10100B0428046E5DB206A38442062D1
:103600002046FFF7EAFEBDE8FF9F0000FE1E000017
:103610002DE9F0418046D21D22F007020025D2E9B3
:103620000002F52914A612D0002A06DA0023D0EBF6
:10363000030063EB020211A608E0D8F800108B0724
:1036400001D50FA602E0490701D50EA601251146B6
:10365000002408F1240704E000F02FF930323A5535
:10366000641C50EA0102F7D12B46324621464046FF
:10367000BDE8F04100F06FB9000000002D0000002F
:103680002B0000002000000030B4002100F12404D1
:103690000CE002F0070505F130054FEAD20242EADC
:1036A0004372655401F101014FEAD30352EA030565
:1036B000EFD10468002310A2250708D504F02004E8
:1036C0000C4304D0C46901230CA2641EC46130BC45
:1036D00000F041B910B5044621461068FFF798FE86
:1036E00002462046BDE810400023CDE7D21D22F05F
:1036F0000701D1E90023C7E7000000003000000007
:10370000F0B40D460188090502D5234C7C4402E043
:10371000214C7C440E34002100F124060BE002F021
:103720000F074FEA1212E75D42EA03724FEA1313E2
:10373000775401F1010152EA0307F0D10278002326
:10374000120704D5702D06D009B111340223224688
:10375000F0BC00F000B910340123F8E770B504465E
:103760000D4621461068FFF753FE024629462046C3
:10377000BDE870400023C3E7D21D22F00703D3E960
:103780000023BDE70368126843F0200303600823A9
:10379000C3610023B4E700005C1D0000026811440F
:1037A0001378016018467047D1600549794451612A
:1037B00004497944116200211161114600F04EBBA9
:1037C000EDFFFFFF8F010000426842B1016811F870
:1037D000013B23B1521EC0E9001218467047012177
:1037E000C160881E704742685AB1C368016843B916
:1037F00083688B4205D0491E521CC0E9001200208C
:1038000070474FF0FF30704710B5203AC0F00B8082
:10381000B1E81850203AA0E81850B1E81850A0E8D4
:103820001850BFF4F5AF5FEA027C24BFB1E818502E
:10383000A0E8185044BF18C918C0BDE810405FEA9E
:10384000827C24BF51F8043B40F8043B08BF70471A
:10385000D20728BF31F8023B48BF11F8012B28BF1F
:1038600020F8023B48BF00F8012B70474FF00002E0
:1038700000B5134694469646203922BFA0E80C5066
:10388000A0E80C50B1F12001BFF4F7AF090728BF41
:10389000A0E80C5048BF0CC05DF804EB890028BFBD
:1038A00040F8042B08BF704748BF20F8022B11F0E6
:1038B000804F18BF00F8012B704730B5B0F10A02F5
:1038C0004FEA900E71F100034EEA817EB0EB0E00DC
:1038D00061EB91014FEA101E4EEA017E10EB0E00E3
:1038E00041EB11114FEA102E4EEA016E10EB0E0063
:1038F00041EB11214FEA104E4EEA014E10EB0E0043
:1039000041EB1141401841F100014FEAD00040EA7B
:1039100041704FEAD10110EB80054FEA810444EA7F
:10392000907444EB01046D1944EB0404521BA34151
:103930004FF0000348BF0A3200D530BD401C41F1B2
:10394000000130BD10B5044600F058FD0068005D70
:1039500000F0010010BD2DE9F0470D469946924652
:10396000044600F124080168880604D5E06921F0C6
:103970001001216000E00120A84202DDA0EB050754
:1039800000E00027A16907EB050202EB0900A1EBAB
:103990000000A0612078C00602D42046FFF706FD93
:1039A000002608E0D4E901211AF806009047206AB1
:1039B000401C761C20624E45F4DB2078C0060AD5F8
:1039C0002046FFF7F3FC06E0D4E9012130209047C0
:1039D000206A401C2062381EA7F10107F4DC07E0D2
:1039E000D4E9012118F805009047206A401C2062A4
:1039F000281EA5F10105F3DC2046FFF7EEFC207838
:103A0000000602D50220BDE8F0870120FBE77047E1
:103A10002DE9FF4F0C461E464FF0FF378BB0D2E921
:103A20000001DDF860800A908A46C1F30A5505B9A5
:103A30003D46002108464FF00000BAF1000F00F4A7
:103A4000400005DA00EB80004FF4400101EA50002D
:103A50004FEA9059B9F1010F00DDB9460A9850EAD2
:103A60004A000ED044F61050A5F2FF3545432F14FE
:103A7000B8F1000F1ED07542291E1EDDC9F10002EB
:103A80001CE0B8F1010F4FF0000001D0302103E03D
:103A9000F24305E02154401CB042FBDB30460022DB
:103AA000002121540B99C1F80880C1E900200FB012
:103AB000BDE8F08FBD1B6D1CDEE74A4600DA6942A7
:103AC00006A800F00FFD06AB07CB03AB07C35046BB
:103AD0000A9901F0B9F88DE80700A0F500501F38E9
:103AE00000900398002D09DD42F21F014A46084468
:103AF00003A90390684601F018FB08E0A0F5005008
:103B00004A461F3803A90390684601F022FB8DE85E
:103B100007000004000C03D04FF0FF30410800E024
:103B20001046B8F1000F03D00022009215461FE0A6
:103B3000751E06D4FFF7C1FE02F1300262556D1EFC
:103B4000F8D5B3460122084302D000227F1C04E0CE
:103B50002078302801D100227F1E002A099787D0C3
:103B60001DE0112D07DAFFF7A8FE303262556D1CFB
:103B700050EA0102F5D108430FD10021681E05E08B
:103B8000235C625C6354491C2254401E8142F7DB73
:103B9000AB46A81B401E099001E0009848B10020E8
:103BA00004F80B000B98099AC0F80880C0E9002BB4
:103BB0007DE711264FF000085AE72DE9F04F8846BF
:103BC0000446D21D22F0070191B0D1E90001CDE9F0
:103BD0000A0101F0F4FB02460B98C00F01D02D2022
:103BE00007E02068810701D52B2002E0202101EAAF
:103BF000C000032A099001D0072A05DB034641468D
:103C0000204600F02FFC0FE12078800601D5E06906
:103C100000E00620B8F1650F814606D0B8F1660FC6
:103C200018D0B8F1670F72D132E00020B9F1110F4E
:103C3000009001DB112301E009F101030AAA01A9A7
:103C40000CA8FFF7E5FEDDE90C70002609F101057F
:103C5000834648E001204B4600904FF000470AAAF7
:103C600001A90CA8FFF7D4FEDDE90DB00C995D4663
:103C7000002618B909F1010001EB0005B9EB0500B8
:103C800003D4C0F1FF3609F10105A5EB09002BE0D3
:103C9000B9F1010F01DA4FF001090020B9F1110F5C
:103CA0000090484601DD112300E003460AAA01A95D
:103CB0000CA8FFF7ADFEDDE90C704D4600268346EB
:103CC000207800070AD4AB4500DA5D4601A8012D33
:103CD00004DD411911F8011C302907D04F4502DAE3
:103CE00017F1040F04DA0120824610E06D1EEEE7A2
:103CF000002F02DCED1B3E4403E0781CA84200DDEF
:103D00000546A7EB060000F1010A4FF000472078B6
:103D1000000703D4AA4501DB4FF0FF3A0021B7F1B9
:103D2000004F0DF143088DF8431023D002202B23C0
:103D3000002F01DA7F422D234FF00A0C011EA0F163
:103D4000010000DC4FB197FBFCF10CFB11720F4638
:103D500002F1300208F8012DF0E7A8F1010003702C
:103D60002188090501D5452100E06521A0F1010860
:103D700000F8011C09980FA9A1EB080707F1070734
:103D800000B1012000EB050101EBEA70A1693844A4
:103D9000A1EB0000A0F10100A0612078C00602D4D0
:103DA0002046FFF703FB099830B1D4E90121904781
:103DB000206A00F1010020622078C00620D520464C
:103DC000FFF7F4FA1CE0002E04DBB34502DD01A886
:103DD000805D00E03020D4E901219047206A761C04
:103DE000401CBAF1010A20620AD100F00FFBC06842
:103DF0000168405CD4E901219047206A401C2062A0
:103E0000281EA5F10105DEDC07E0D4E9012118F840
:103E1000010B9047206A401C2062381EA7F1010761
:103E2000F3DC2046FFF7D9FA022011B040E610B5C6
:103E3000436913B1AFF3008001E0FFF78BFB012072
:103E400010BD128800F1240182840022C284012264
:103E5000EDE711684FF0FF32E9E700002DE9F34F7D
:103E60004FF0000A0C4656468DB001200C9001F12F
:103E70000C000B9062690B980121904705002DD032
:103E8000252D2CD0216A8847C0B162690B98012189
:103E90009047216A88470028F7D16269411E0B9834
:103EA000904700E0761CA1690D988847216A8847F1
:103EB0000028F7D1E1690D988847DBE7A1690D98E3
:103EC0008847A842074601D1761CD3E7E1690D98DF
:103ED00088477F1C02D1BAF1000F6FD06AE1626996
:103EE0000B9800273D46394690472A2804D162693D
:103EF0000B98012190470125DFF8CC8262690B986D
:103F000001219047A0F130010A290AD24745E5DC9A
:103F100007EB870100EB4107303FDFD445F0100588
:103F2000ECE7E90601D46FF000476C280AD04C2872
:103F300014D0682815D06A280DD074281CD07A288F
:103F40001AD01DE062690B98012190476C2802D0BD
:103F500045F0040514E045F002050DE045F02005AC
:103F60000AE062690B9801219047682802D045F069
:103F7000080505E045F4006562690B98012190474A
:103F8000C4E9015765283DD019DC582879D00CDCEC
:103F9000452837D004DC252826D041289ED131E0A1
:103FA00046282FD0472899D12CE05B287FD0612864
:103FB00028D063287BD0642890D159E0F5E06F28A1
:103FC00047D008DC66281DD067281BD0692821D07F
:103FD0006E2816D127E0702844D0732867D0752842
:103FE00046D078280DD14CE0A1690D988847252846
:103FF00005463FF469AFE1690D9888476D1C3FF4B1
:104000006AAFD7E00D9923466A466FF00100AFF31F
:104010000080C4E045F0400023464FF0000260609D
:10402000A80735D43DE0206800F104012160006854
:10403000290501D506701DE7290701D5068019E776
:10404000A90704D54FEAE671C0E9006112E70660EE
:1040500010E745F0400023464FF008026060A807D3
:1040600016D41EE040F60E0125EA0100606016E05D
:1040700045F0400023464FF00A026060A80707D4CD
:104080000FE045F040006060A80708D523461022E5
:104090000D996FF00100AFF3008080E007E010227F
:1040A00023460D996FF00100AFF3008077E04FF0E9
:1040B000000963284F46C8464B46CB4602D05B28D2
:1040C00006D038E0E80601D40120A060012732E0E4
:1040D0006269D4F80CB00B98012190475E2807D193
:1040E0004FF0010949466269D4F80CB00B9890472B
:1040F000216939B900210B4603AA42F82130491C35
:104100000829FADBD8B3216949B308F101086269CB
:104110000B98012190475D28F4D1B9F1000F09D027
:10412000002003A951F82020D24341F82020401C50
:104130000828F7DB03AB2069002820794FEA40709C
:104140001ED05B462246CDF80080CDE901970D993F
:1041500000286FF0010020DAAFF300801FE0C117E4
:1041600000EBD16203A9531122F01F0201EB83017E
:10417000821A0B680120904003430B60C7E719E0E7
:104180000D99224600286FF00100009702DAAFF384
:10419000008004E0FFF702F801E0AFF300800028A0
:1041A0000ADA401C06D10C9820B14FF0FF300FB056
:1041B000BDE8F08F5046FAE7E90701D10AF1010A9C
:1041C000064400200C9055E6CCCCCC0C007B00F0D3
:1041D0008000704710B542485421FFF747FB414823
:1041E0005421FFF743FB40485421FFF73FFB3F4971
:1041F0003B483C4A3F4B08603D490A603A491960D8
:10420000531C0365481C1065012008653B48344A6F
:1042100039A1784400F0FCF920B9384878440A38CC
:1042200000F098FA37482F4A35A1784400F0F0F9A9
:1042300020B9344878440A3800F08CFA32482A4AC7
:104240002FA1784400F0E4F920B92F4878440A38C7
:1042500000F080FA40232248DC000021224600F0D2
:10426000B3F920B125487844543800F073FA1D485A
:1042700022464023002100F0A7F920B121487844CC
:10428000543800F067FA184822461023002100F045
:104290009BF9002806D01C487844BDE810405638E9
:1042A00000F058BA10BD104870B5006D20F0010440
:1042B0000B4800F023FA0B4800F020FA0A4800F0FF
:1042C0001DFA09E0206D20F00105204600F016FAE5
:1042D000204600F09FF82C46002CF3D170BD000062
:1042E0005C150020B0150020041600203C000020C2
:1042F0004000002044000020720000007E120000F8
:10430000770000006A1200005612000070B51646D1
:104310000C46054600F072F8036893F80101012885
:1043200006D0FF2C0FD8185D68B101202C7070BD2D
:10433000D3F807013246214603442846BDE87040C1
:1043400003F2071318474FF0FF3070BD0EB5CDE9EB
:104350000001FEF7A2FF029069460120ABBE0EBD30
:1043600008B5694600900220ABBE08BD1FB58DE8B8
:10437000070069460520ABBE04B010BD1FB58DE82F
:104380000F0069460620ABBEF6E708B56946009007
:104390000920ABBE08BD1CB5CDE9000169460A2065
:1043A000ABBE1CBD704708B5694600900C20ABBE83
:1043B00008BD754600F0D6F9AE460500694653467D
:1043C00020F00700854618B020B5FBF749FFBDE88F
:1043D00020404FF000064FF000074FF000084FF06C
:1043E000000B21F00701AC46ACE8C009ACE8C009FD
:1043F000ACE8C009ACE8C0098D46704710B500F0C4
:1044000005F8001D10BD00BF1910000000487047DE
:104410007816002070B50446051F00F0A9F9006861
:10442000002C14BF446870BD002C18BFAC423CBFC8
:1044300020466468F8D301680A18AA4218BF45608C
:1044400003D12A6805461144016028684119A14238
:104450001CBF6C6070BD6168696021680844286099
:1044600070BD00002DE9F0411F4604460326016897
:10447000072A01F4006004DB08B116A505E016A5C3
:1044800003E008B115A500E015A521F0100020609B
:10449000A069C01EA0610FB1401EA0612046FEF7BA
:1044A00085FF4FB1D4E9012138469047206A401C6E
:1044B0002062C01C206206E0206AFAE7D4E90121EC
:1044C00015F8010B9047761EF8D22046FEF785FFBF
:1044D000BDE8F0814E414E006E616E00494E4600CF
:1044E000696E66002DE9F047814616468AB0354868
:1044F0007844D0E9002380680092CDE9013031484A
:1045000078440C38D0E90223006903924FF0370257
:10451000CDE9043041F69B30014491FBF2F0A0F16B
:10452000800502FB10141B3C02D56442012000E010
:104530000020DFF890A080460027FA44AAF1C60ABE
:104540000DE0E00709D03246684607EB47010AEB69
:10455000810100F0FEFD8DE8070064107F1C002C37
:10456000EFD1184F7F44B43F17E0E80713D007EBB3
:1045700004100DF1180A90E80E00AAE80E00C068B9
:10458000F04201D198190890324606A903A800F01C
:10459000E0FD03AB07C36D10641C002DE5D132466E
:1045A0006946B8F1000F03A802D000F0BEFD01E09B
:1045B00000F0CFFDC9E90001C9F808200AB0BDE844
:1045C000F08700002810000070B5C468A50713D05C
:1045D000650211D4B2F5807F09D0B2F5007F06D014
:1045E000B2F5806F08D1012300F1240106E05D1EC1
:1045F0006FF07F46B54201D3012070BD0161C361F8
:10460000416024F470611143C160002070BD00005E
:104610002DE9F0410C4607461646104600F06EF8AC
:104620002078611C61280AD0722802D077283CD1FA
:1046300002E00125002405E00225042402E008240C
:1046400048F2020511F8010B2B2806D0622809D088
:1046500011F8010C74280AD00BE045F0030544F072
:104660000204EFE745F0040544F00104EAE744F0F2
:10467000100438462146FFF769FE411C15D0002181
:10468000316171604FF40071F560F1617061200774
:1046900004D530460222002100F0E4F8306D40F0ED
:1046A000010030653046BDE8F0810020FBE72DE9D0
:1046B000F0410D460646104C206DC10704D041085C
:1046C00004D020F00104F7E722460EE0542000F069
:1046D0009AF807000ED0206D47F0010108435421DD
:1046E00020653846FFF7C2F83A4629463046BDE80D
:1046F000F0418DE70020D6E75C1500202DE9F0475A
:1047000004464FF000094FF0FF37C568D4E904862E
:10471000A80707D0204600F055F93046FFF720FEE5
:10472000002802DA3846BDE8F087280502D5404661
:10473000FFF770FE4C212046FFF798F8206D20F01F
:10474000010020654846EEE70446AFF300802046AE
:10475000FBF771FD10B500F07FF9BDE8104000F0E7
:1047600075B90000004870475816002070470000D7
:1047700000487047601600207047704770477047C8
:1047800038B504460A4600206946AFF30080002889
:1047900008BF38BD02460099204600F0C4F9012048
:1047A00038BD012000F015BAF8B5AFF3008005461A
:1047B00000200C46102000BF0646A819A0420DD9C3
:1047C000324669460020AFF30080070008BF00F0C2
:1047D00000FA0098A04218BF0546C419FFF7C8FFA9
:1047E00005600746F01D20F007004619284600F036
:1047F00093F9B44208BFF8BDA21B31463868BDE842
:10480000F84000F090B970B50646FFF7B1FF0568B3
:1048100006F10B0020F00704B4429CBF002070BDDD
:104820002B466A68BAB11068A04210D304F108019F
:1048300088423CBF5068586007D3516810194160E6
:104840001168091B016058601460101D70BD13468B
:104850005268002AE7D121462846FFF791FF002839
:10486000DED170BD2DE9F041044616460D4647697C
:10487000007B80072ED03846FFF787FD50BB3EB344
:10488000012E02D0022E25D104E0204600F065F969
:1048900005441DE03846FFF786FDE168002841F039
:1048A0001001E16005DA204600F058F80120BDE86B
:1048B000F081C9030BD56268E16A914200D81146C4
:1048C000A26911442269891A814200DD0846054423
:1048D000002D01DA0220EAE7E16A6068E2688142BD
:1048E00006D29103E06203D522F4003141F01002B8
:1048F000A6690027AE4213DCE16A814201D90B466A
:1049000000E0034603EB060C2369ACEB030CAC455B
:1049100006DD814201D98C4600E084469C4505D1E4
:10492000A760276042F02000A5620DE0AD1BE6699C
:10493000AE1B8142A66000D90846C01A281A206022
:104940005819606022F0200003490840E060002010
:1049500084F84870ABE70000BFCFD7FFC16821F4EF
:10496000001141F08001C160002181600160704749
:104970002DE9F047814614460E464FF0FF38324885
:10498000D5685769054209D03846A169FFF703FD8C
:10499000002811DB2C48C0430540E5602B46324619
:1049A00049463846FFF7E2FCA16920F00042B21AFE
:1049B00011440028A16103D02046FFF7CFFF4046F5
:1049C000BDE8F08770B504460569C06A6168884231
:1049D00000D80846E16821F42011E160C90312D52E
:1049E000A84208D02246411B2846FFF7C1FF10B15C
:1049F0004FF0FF3070BD0020E562C4E90150E0686F
:104A000020F48030E060002070BD10B50446C0681E
:104A100020F02000E060A16AA06988420DD0204605
:104A2000FFF7D0FFE06820F4405040F01000E06055
:104A3000A06AA0612069E062606044F24001E06821
:104A40008843E06010BD000010000200002801D083
:104A500000F05CB87047000010B5014602A000F0FD
:104A60009FF8012010BD000053494752545245445D
:104A70003A2052656469726563743A2063616E27F7
:104A800074206F70656E3A20000000004FF0013C0A
:104A900050F8042B51F8043B9A4221D1A2EB0C03AD
:104AA000934313EACC1317D150F8042B51F8043B6D
:104AB0009A4215D1A2EB0C03934313EACC130BD10A
:104AC00050F8042B51F8043B9A4209D1A2EB0C0395
:104AD000934313EACC13DBD04FF00000704700BFC4
:104AE000D01A01BAB1FA81F101F0180122FA01F0ED
:104AF000CB40C1F12001DBB2C0B2C01A2CFA01F3E5
:104B0000D11A914311EAC311E6D170470149182027
:104B1000ABBEFEE72600020000210160C0E90110E3
:104B2000704710207047034640688C46002818BF25
:104B300088423CBF03464068F8D31868184488424E
:104B400007D00CF1030020F00700001D411A521A93
:104B50000146081D0A60FFF75DBC10B50146C2683A
:104B6000900703D0900607D5886A0BE000F040F864
:104B700001210160881E10BD8B69486818440B69CB
:104B8000A0EB030091F8483023B191F84910A0EB55
:104B9000010010BD1103FCD50028FADD401E10BD38
:104BA00070B505460C460A2000E06D1C00F018F8B0
:104BB00035B128780028F8D102E0641C00F010F824
:104BC00014B120780028F8D1BDE870400A2000F028
:104BD00007B810B500F010F8BDE81040FFF736BF79
:104BE00008B569468DF800000320ABBE08BD000083
:104BF000004870475816002010B5012805D0002144
:104C000003A0FFF7CDFF012010BD09A1F8E70000C8
:104C100053494752544D454D3A204F7574206F66A5
:104C20002068656170206D656D6F7279000000000D
:104C30003A2048656170206D656D6F727920636FF1
:104C400072727570746564005FEA400C08BF91F081
:104C5000000F4FEA8C234FEAC12243EA51514FEA39
:104C60001C5018BF00F5F0404FEA300018BF41F06B
:104C700000415FEA6C5C00F02980BCF1FF3F08BF97
:104C800040F080407047130C06BF12044FF0100C28
:104C90004FF0000C130E04BF12020CF1080C130F9E
:104CA00004BF12010CF1040C930F04BF92000CF12D
:104CB000020CD30F04BF52000CF1010C11464FF04F
:104CC0000002A0F11F00A0EB0C00704711F0004F94
:104CD00008BF704731F000413FF4D5AF0B0C06BF61
:104CE00009044FF0100C4FF0000C0B0E04BF09022A
:104CF0000CF1080C0B0F04BF09010CF1040C8B0F15
:104D000004BF89000CF1020CCB0F04BF49000CF169
:104D1000010CCCF12003A0EB0C0022FA03F302FA01
:104D20000CF241EA030100F10100704720F07F4CD2
:104D300080EA030023F07F47ACEB070303F57C53C5
:104D400000F0004003F1FF032DE980494FEA154BC5
:104D500009B44FEA144325EA0B4E24EA03480FF244
:104D6000042606EB132749083E785FEA320203FB6C
:104D70000667C7F5000707FB06F64FEA54374FEA08
:104D8000D64606F1020607FB066CCCF1005C4FEA42
:104D90001C472CEA074C07FB06F40CFB06F504EB5A
:104DA00015464FEA961634BF00204FF000404FEAF8
:104DB000D13706FB07FC4FEA1C4C0CFB0BF7D21B50
:104DC00003FB0CF761EB07010CFB0EF7B0EB0740A0
:104DD00072EB17420CFB08F734BFA2EB0742B2EBB1
:104DE000074261EB17414FEA0C444FEA910706FB7B
:104DF00007FC4FEA1C4C0CFB0BF7B0EBC74072EB07
:104E0000573203FB0CF734BFA2EBC742B2EBC742E9
:104E100061EB57310CFB0EF7B0EBC70072EB57722A
:104E20000CFB08F734BFA2EBC702B2EBC70261EB81
:104E30005771039F4FEA816141EA921104EBCC0460
:104E40004FEAD1374FEA826206FB07FC42EA901232
:104E50004FEA80604FEA1C4C0CFB0BF7D21B03FBA4
:104E60000CF761EB07010CFB0EF7B0EB074072EBA0
:104E700017420CFB08F734BFA2EB0742B2EB074224
:104E800061EB17414FEA8C554FEA910704EB9C24E4
:104E900006FB07FC4FEA1C4C0CFB0BF7B0EBC740C2
:104EA00072EB573203FB0CF734BFA2EBC742B2EBF5
:104EB000C74261EB57310CFB0EF7B0EBC70072EB4A
:104EC00057720CFB08F734BFA2EBC702B2EBC70264
:104ED00061EB577115EB4C254FEA816141EA921164
:104EE0004FEA82624FEAD13742EA901206FB07FC92
:104EF00044F100044FEA80604FEA1C4C0CFB0BF7B6
:104F0000D21B03FB0CF761EB07010CFB0EF7B0EBB8
:104F1000074072EB17420CFB08F734BFA2EB0742C5
:104F2000B2EB074261EB174115EB1C154FEA8131DB
:104F300041EA92414FEA823242EA90424FEA80309F
:104F40004FEA0C7644F1000448EA03434EEA0B486A
:104F50004FF0000EB2EB080C71EB030724BF624662
:104F600039464EEB0E0E4FF0000B001852414941EE
:104F70004BEB0B0BB2EB080C71EB03077BF1000B57
:104F800024BF624639464EEB0E0E4FF0000B001860
:104F9000524149414BEB0B0BB2EB080C71EB030791
:104FA0007BF1000B24BF624639464EEB0E0E51EAF0
:104FB000020718BF46F0010616EB0E7655F1000207
:104FC00054F1000103D5BDE88901BDE80088BDE8C2
:104FD0008901BDE80048B619524141EB0101A3F136
:104FE0000103704780807F7E7D7C7B7A797877763D
:104FF00076757473727171706F6E6E6D6C6C6B6AB6
:105000006A69686867666665646463636261616053
:10501000605F5F5E5E5D5D5C5C5B5B5A5A595958D0
:10502000585757565655555554545353525252513A
:10503000515050504F4F4F4E4E4D4D4D4C4C4C4B90
:105040004B4B4A4A4A4949494848484747474746D7
:105050004646454545444444444343434342424213
:1050600042414141002B26D4770021D01CB54FEAA4
:10507000370703B44FF010004FF010014FF000005D
:105080000FBCBDE810400BF1010BBBF1010F08BFD5
:105090005FEA170722BF12F1010211F101014FF07F
:1050A000004143F1000300F0004043EA0000704774
:1050B000F9D35708DAE746EA064613F1400F4FEAFC
:1050C00016461FDD13F1200FDFBF16430A460021ED
:1050D00020335B42C8D0C3F1200746EA064602FAF5
:1050E00007F74FEA164646EA0706C3F1200722FAF9
:1050F00003F201FA07F721FA03F14FF0000342EA45
:105100000702B1E746EA020646EA06464FEA1646B5
:1051100046EA0106BCBF46EA0646360C4FF00003DD
:105120004FF000024FF000019EE72DE9C048934682
:1051300030B491E8380007C831EA400C48BF34EA7F
:10514000430C03D5FFF7F2FDFFF78CFFF0BCBDE881
:1051500000882DE9C048934630B491E8380007C86C
:1051600010F0804F08BF13F0804F03D100F005F816
:10517000FFF778FFF0BCBDE8008820F07F4780EAA9
:10518000030023F07F4C07EB0C03A3F57C5300F0E6
:105190000040A3F1FE0392F0000F00F0B38095F001
:1051A000000F00F077802DE901494FEA11404FEAE6
:1051B000144621EA004800FB06FC24EA064708FBE7
:1051C00006F607FB08F800FB07F718EB06484CEB60
:1051D000164C4FEA124B18EB07484FEA15464CEBBA
:1051E000174022EA0B4E0BFB06FC25EA06470EFB96
:1051F00006F607FB0EFE0BFB07F71EEB064E4CEB0D
:10520000164C4FF000061EEB074E4CEB174B18EBFD
:105210000B0840F1000018EB0E0B58EB000840F1B2
:1052200000008F1A4FF000013CBFC943661B14BF3A
:10523000B5EB040C00213CBFC943F61B4FEA1744F1
:105240004EEA8E0E27EA04454FEA1C4704FB07622C
:105250002CEA074C05FB07F70CFB05F604FB0CFCDE
:1052600016EB074642EB174216EB0C4642EB1C428C
:105270001BEB060658EB0202414146EA9E0601D5A9
:10528000BDE80189B619524141EB0101A3F10103C7
:10529000BDE801894FEA14454FEA114724EA054663
:1052A00021EA074C05FB07F406FB07F70CFB06F1A8
:1052B00005FB0CFC11EB074144EB17444FEA124786
:1052C00011EB0C4144EB1C4422EA074C05FB07F2AE
:1052D00006FB07F70CFB06F605FB0CFC16EB074676
:1052E00042EB174216EB0C4642EB1C456A1854F190
:1052F000000148BF7047B619524141EB0101A3F1CB
:105300000103704795F0000F37D04FEA11424FEA82
:10531000144721EA024624EA074C02FB07F106FB88
:1053200007F70CFB06F402FB0CFC14EB074441EB03
:1053300017414FEA154714EB0C4441EB1C4125EA99
:10534000074C02FB07F506FB07F70CFB06F602FB12
:105350000CFC16EB074645EB174516EB0C4645EBE8
:105360001C42121951F1000148BF7047B619524151
:1053700041EB0101A3F1010370474FEA14454FEAE5
:10538000114724EA054621EA074C05FB07F106FB15
:1053900007F70CFB06F24FF0000605FB0CFC12EBC6
:1053A000074241EB174112EB0C4251EB1C4148BF45
:1053B0007047921841EB0101A3F1010370474900C6
:1053C00050EAC12018BF04204A0D18BF40F0010068
:1053D00040F2FF72B2EB515F08BF40F002000128BB
:1053E00008BF0520704730380A2801D201207047D5
:1053F0000020704710B500290AD00878002807D08F
:1054000005487844FFF742FB002801D0002010BD7A
:105410000248784410BD0000720100006A010000DB
:1054200010B500290AD00878002807D0054878442C
:10543000FFF72CFB002801D0002010BD0248784463
:1054400010BD0000620100005A010000FEF7B5BB6C
:10545000040000080000000000000002000100003D
:105460001000000000000000000000003031323366
:105470003435363738394142434445464030580088
:1054800030313233343536373839616263646566BA
:10549000403078003A7474003A7474003A747400BE
:1054A00002400000000000A00000000005400000D5
:1054B000000000C8000000000C4000000000409CFC
:1054C00000000000194000000020BCBE00000000E9
:1054D00034400000BFC91B8E00000004B54000002E
:1054E000504BCFD06607E2CF010000006C410000B6
:1054F0003E8251AADFEEA73401000000D94200002D
:10550000DCB5A0E23A301F97FFFFFFFFB445000073
:10551000FD25A0C8E9A3C14FFFFFFFFFFF3F00002B
:105520000000008000000000FF3F0000000000803D
:10553000000000000D0ACED2CAC7544350B7FECEB9
:10554000F1C6F7A3ACCAFDBEDDD2D1CAD5B5BD2127
:105550000D0A0000A05600080000002048000000CE
:1055600028010008E856000848000020701C0000D0
:10557000440100081C00000043000000F8FFFFFF8A
:105580000C0000000E0000000F0000002E000000C4
:105590001001000043000000F8FFFFFF0040404002
:1055A00040404040404041414141414040404040F6
:1055B00040404040404040404040404040050202A2
:1055C0000202020202020202020202020220202061
:1055D00020202020202020020202020202029090BD
:1055E00090909090101010101010101010101010BB
:1055F000101010101010101002020202020288880F
:10560000888888880808080808080808080808081A
:105610000808080808080808020202024000000002
:10562000000000000000000000000000000000007A
:10563000000000000000000000000000000000006A
:10564000000000000000000000000000000000005A
:10565000000000000000000000000000000000004A
:10566000000000000000000000000000000000003A
:10567000000000000000000000000000000000002A
:10568000000000000000000000000000000000001A
:10569000000000000000000000000000000000000A
:1056A00000000000010203040102030406070809C8
:1056B0000204060800A24A040000000000000000E6
:1056C0000102030406070809000000003455000821
:1056D00000000000000000000000000000000000CA
:0856E0000000000000000000C2
:04000005080000ED02
:00000001FF
